:020000040800F2
:1000000018140020D5000008E959000889480008A4
:1000100000000000000000000000000000000000E0
:10002000000000000000000000000000CF60000899
:100030000000000000000000655A00085968000830
:10004000E7000008E7000008015C0008E70000087E
:10005000E70000087913000885130008A5130008BD
:1000600000000000E7000008150F0008E700000886
:10007000E7000008E700000869730008F16900085C
:10008000016A0008E7000008E7000008000000001F
:10009000E7000008E7000008E7000008E7000008A4
:1000A000E7000008E7000008E700000859730008AF
:1000B000E7000008E7000008000000000000000062
:1000C0000348854600F006FD00480047A18C000863
:1000D000181400200448804704480047FEE7FEE764
:1000E000FEE7FEE7FEE7FEE789690008C1000008B9
:1000F00030B50B46014600202022012409E00D46C0
:10010000D5409D4205D31D469540491B2546954047
:1001100040191546521E002DF1DC30BD70B500248B
:100120002546002801DA01244042002901DA012590
:100130004942FFF7DDFFAC4200D04042002C00D026
:10014000494270BDF0B51FB40646002082B0054696
:100150004024019100901BE0019922460F46304651
:1001600000F06CFB049A059B801A994110D310464D
:100170001946224600F052FB361A8F41019722465B
:1001800001200021009F00F049FB38184D410090EC
:100190002046641E0028DFDC019B00982946324679
:1001A00007B0F0BDD2B201E00270401C491EFBD284
:1001B00070470022F6E710B513460A460446194672
:1001C000FFF7F0FF204610BDF8B502464A40D40FB5
:1001D00042004B0052085B089A4202D2024608468F
:1001E00011464A0023D0C30D4A00DDB2120EAD1AEB
:1001F000202D35DA49020126490AF6058A19002C14
:1002000000D0524220214F1B1146B9402A411018FC
:10021000C20D9A4221D0002C17D0012D08DCDA053E
:10022000801AD20F8019D207DBB200F033FBF8BD81
:10023000DA05801A012340001B06C01880185A42B4
:100240008018CA0F1043490007E04908C20711434C
:10025000DA05801A80194008801800F013FBF8BDF9
:1002600061000122511A001BF7E70122D207514019
:10027000AAE70122D2075040A6E7024670B54A40DD
:10028000D30FDB0740002DD04A002AD0010E140EF8
:10029000000212020919400A520A8418E5010446B4
:1002A0005443000A120A2E045043A4194219200C88
:1002B000C543AA18120C0125AD03521C5219120491
:1002C0007F39240400D0521C104301D44000491E41
:1002D000C2B20C06C0092018401C4008802A02D077
:1002E00003E0002070BD40084000002900DA002033
:1002F000184370BD70B502464A40D50F40004A0011
:10030000ED0740085208002814D0002A12D0C40D6E
:10031000D30D41020120C0055202490A520AE41AD3
:10032000091812187D34914201D3641C00E0490081
:10033000002C01DA002070BD0023914201D3891AFC
:100340000343400849000028F7D100290AD0914210
:1003500002D10121C90705E0914201D2012101E04A
:100360000121C943E005C018401900F08BFA70BDA7
:10037000F0B507460846584087B0C00F04904800C3
:100380000E46590040084908BC1A884105D2384633
:1003900031461E4617460B46024658004008104399
:1003A0004CD0300D039040055900400D490D05908B
:1003B000401A0290402872DA18030121000B090547
:1003C0000843019004980092002805D001995242F8
:1003D0000020884100920190029840210A1A019958
:1003E000009800F01BFA05460C466B4607CB00F060
:1003F00036FAC0197141039A0E0D0023D7175640E3
:100400001A467A40164344D0049A002A2DD0029A04
:10041000012A039A15DC1205C01A914101263605FE
:10042000001C7141D20F059ED207009301920296E3
:100430002A46234600F074FA07B0F0BD384631462C
:10044000FAE71605224A0F46B218C01AB741012131
:100450000905001C4F4100187F41114618187941C9
:10046000E20F10436D19644113E0E2076D08154374
:100470006408C2071443039A01261205C01A914169
:100480003605001C7141CE07400830434908C018AA
:1004900051412A46234600F036FACDE7FFE704989B
:1004A00001224000C117121A00238B4104983146E3
:1004B000C417381AA141EEE730B40124E4076340C1
:1004C00030BC55E730B40124E407614030BC4FE74D
:1004D0000000E0FFF0B51FB488B00B990998002424
:1004E00048400999C00F490049080991C0070B9974
:1004F0000090490049080B9109990898A6460843BD
:100500001CD00B990A98084318D009980124400080
:10051000420D4800410D099824050003000B2043BB
:1005200009900B980003000B20430B9050181C49B6
:100530004018002201901446104605E000200146B4
:100540000DB0F0BD032801DA034600E003239C460A
:10055000C11A0AAE0AE05F0008ADED5B4F00F75B21
:100560007D430027AA187C41491C5B1E6145F2DDD2
:10057000410004AB5A522104120C0A43240C401CC3
:100580000828DFDB019802900099704601910090E5
:10059000059B049A0799069800F0C2F9D0E700007D
:1005A0000DFCFFFFF0B50C465C4085B0E40FE4079E
:1005B00003944C00002664085900944649080246FA
:1005C0000296224321D062460A431ED06200570D94
:1005D0004A000E032303550D012402462C4924052D
:1005E000781B1B0B360B40182343264361460090B3
:1005F0001C46501AB44103D30098401C009002E0FE
:10060000921800985B41002803DA0020014605B0EB
:10061000F0BD0020012109050746864611E0644629
:100620001D46141BB54106D36546521BB3417446A3
:1006300007430C43A646CD074008490828439218B3
:100640005B4105460D43EAD11046184313D060467E
:10065000194650407140084306D06046101AB34115
:1006600006D20122002306E000220123DB0702E07C
:100670000122D2435310009874460105381C614191
:10068000029C039D0019694100F03DF9BFE700009D
:10069000FD030000C217C10F504010B54018CA0733
:1006A0009623002100F0F6F810BD10B50022962325
:1006B000114600F0EFF810BD0EB5C217C10F504043
:1006C000CA0740180021054B0293019200910A4687
:1006D0000B4600F025F903B000BD00003304000014
:1006E000410040020122400AD205090E80187F29EC
:1006F00001DA00207047962903DC9622511AC8407F
:1007000070479639884070474A0009030123090B56
:100710001B051943094B10B5520D9A4201DA00200E
:1007200010BD064B34339A4203DC9A1A00F086F867
:1007300010BD03495118884010BD0000FF030000A0
:10074000CDFBFFFFC20FD207400040080BD0C10D08
:100750000723DB01C91840020905400A1143C208FA
:1007600040071143704700200146704710B500292B
:1007700004DB0124E40740428C412146002B04DBCA
:100780001C460123DB075242A3418B4200D1824227
:1007900010BD000010B5002904DB0124E40740422D
:1007A0008C412146002B04DB1C460123DB0752420F
:1007B000A341994200D1904210BD0000CB0FDB074E
:1007C000490010B5490802460A4307D00A0D07241C
:1007D0000903E401090B121B002A01DC002010BDF3
:1007E000C900440F0C43C100E018D205801800F086
:1007F00049F810BD0122D207002800DB101A002999
:1008000000DB511A814270470122D207002800DB29
:10081000101A002900DB511A8842704710B5202AAF
:1008200004DB0146203A9140002010BD9140202376
:100830009C1A0346E3401943904010BD10B5202A8E
:1008400004DB0846203AD040002110BD0B46D340BF
:10085000D0402024A21A91400843194610BD10B57B
:10086000202A06DBCB170846203A1041C1170B435C
:1008700006E00B461341D0402024A21A91400843C1
:10088000194610BD002904DA401C490001D1400876
:100890004000704770B40024050C05D110240004FA
:1008A00002D1002921D01124050E01D10002083403
:1008B000050F01D10001241D850F01D18000A41C6A
:1008C000002801DB4000641C002908D020252E1BD5
:1008D0000D46F540A14000D00121294308430106FF
:1008E0001B1B000ADB1D02D5002070BC7047DB0516
:1008F000181880180029F8DA401C4900F5D170BC9E
:1009000040084000704710B5002B08DA0024401C56
:10091000614192185B411A4301D14008400010BD6B
:10092000F0B51FB482B005460C0003D0084607F0AE
:1009300087FA02E007F084FA203002460090214650
:100940002846FFF76BFF049B059A04460F461843A1
:100950001143084314D0184610431BD0009840217F
:100960000A1A18460599FFF769FF05460E46009AD0
:1009700005990498FFF752FF084305D0012004E0D1
:100980002046394607B0F0BD0020C11705430E438D
:100990002C43374300990E986305401A7905E40A01
:1009A00000220C43FD0A0A3002D500200146E9E787
:1009B0000105101969410C9C0D9D00196941FFF753
:1009C000A2FFDFE770B54B005B0803430BD04B0081
:1009D0005C0D002633466542B341D417AD1AA341DE
:1009E00002DB0020014670BD12053018514170BD78
:1009F000FEB500231A461B1A8A4103DB002001467C
:100A000003B0F0BD4A000D0301212D0B0905520D65
:100A10000D43D10702D100186D41521E5110FF3114
:100A2000FF310131002704463E46384600970191C8
:100A30000246012100200905FFF700FFC31971419B
:100A4000F818324684468E464A4161462846611A65
:100A5000904104D36046241A954176461F462419D6
:100A600000986D41401C00903428E1DDF9193046B2
:100A70007041091BA84103D20022D243134601E072
:100A80000022134601980105381C7141FFF73BFF16
:100A9000B6E700004A0009030123090B1B051943AF
:100AA0000A4B10B5520D9A4202DA0020014610BDE1
:100AB000064B34339A4203DC9A1AFFF7BFFE10BD8F
:100AC000034BD218FFF7AAFE10BD0000FF03000081
:100AD000CDFBFFFF064C0125064E05E0E36807CC81
:100AE0002B430C3C98471034B442F7D3FFF7ECFA91
:100AF000389E0008589E000830B58C180278401CBB
:100B000013071B0F01D10378401C120906D102788C
:100B1000401C03E005780D70401C491C5B1EF9D198
:100B200001E00B70491C521EFBD1A142E6D300200C
:100B300030BD000070B50446002515480460012052
:100B4000000313494860134800F0CEFC002111480F
:100B500000F05CFC0F4800F017FF0A210D4800F080
:100B60009DFE0C4800F044FD0121490208408842E6
:100B700003D1084800F03FFD85B2064800F040FF71
:100B8000054803494860034800F0AEFC284670BDA4
:100B900088000020F80B00200110000070B504460A
:100BA000002520688068042108408008002829D09A
:100BB00020688068084004280BD1206880680221E2
:100BC0000840002805D1206880681021084321686A
:100BD000886001F00DFA05460EE001F009FA401BAD
:100BE0000A2809D9606D102108436065A06D0121B4
:100BF0000843A065012070BD20688068042108407A
:100C00000028EAD10020F6E738B50446074908482D
:100C10000068FFF76DFA6043009002E00098401E04
:100C2000009000980028F9D138BD000040420F0024
:100C30006800002070B504460025206880688007A1
:100C4000800F012807D120680068C007C00F002866
:100C500001D0012000E00020002837D02068806803
:100C600005210840012800D100E0002000280AD01A
:100C700000BF206880680221084321688860032043
:100C80002168086009E0606D102108436065A06D6F
:100C900001210843A065012070BD01F0A9F90546B6
:100CA0000EE001F0A5F9401B0A2809D9606D10215A
:100CB00008436065A06D01210843A0650120EBE7B2
:100CC00020688068C007C00F0028EAD10020E3E751
:100CD00070B504460025206880688007800F0128D1
:100CE00007D120680068C007C00F002801D001208C
:100CF00000E00020002839D1206880681C490840A5
:100D0000002801D1012000E00020002809D1606DF9
:100D1000102108436065A06D01210843A0650120F2
:100D200070BD206880680121084321688860012027
:100D3000FFF76AFF01F05CF905460EE001F058F993
:100D4000401B0A2809D9606D102108436065A06D19
:100D500001210843A0650120E2E720680068C00780
:100D6000C00F0121484048400028E7D00020D7E7C5
:100D70001700008010B504F03BFB0021014800F093
:100D800045FB10BDF80B00200123DB0402681A406C
:100D90009A4204D1034B02681A430A6001E00268D8
:100DA0000A6070470000F0FF00B587B000BF174829
:100DB000C06A012108431549C8620846C06AC007D5
:100DC000C00F019000BF00BF00BF0846C06A0221EB
:100DD00008430E49C8620846C06A022108400190D3
:100DE00000BF00BF1020029001200390002004905B
:100DF000059002A90520000700F0EAFF012210215A
:100E00000520000701F0EDF807B000BD001002401A
:100E1000F8B504460D4616466006010E0091684678
:100E200000780121084300900022102105200007CE
:100E300001F0D7F80023DB4301226946084802F09D
:100E40002BFE0023DB4332462946054802F05EFDB7
:100E5000012210210520000701F0C3F83846F8BD33
:100E6000540C00201CB504466006010E0091684633
:100E70000178012001430091002210210520000784
:100E800001F0AFF80023DB4301226946094802F074
:100E900003FE0023DB43012201A9064802F036FDD0
:100EA000012210210520000701F09BF86846007917
:100EB0001CBD0000540C002010B5FFF775FF04F0B6
:100EC000C1FF10BDFFB50C461049002213E0009E83
:100ED000B65C714000250BE0CB07DB0F49084904E5
:100EE000490C002B01D00A4E714089B26E1CF5B23C
:100EF000082DF1DB521CA242E9D388B20712029EF0
:100F00003770039E307004B0F0BD0000FFFF00009A
:100F100001A0000010B5034800F0C8FD024800F031
:100F2000C5FD10BDB80800200009002030B51C2503
:100F3000446C2C400125A540046C65600468636026
:100F40008468102C04D10468A2600468E16003E0A6
:100F50000468A1600468E26030BD000010B5034879
:100F600000F0A4F804F080FD10BD0000BA070020D6
:100F700008B50020424908604248434908607D2086
:100F800040014249086042484249086017204249EE
:100F900008703B20487005208870404880884008D1
:100FA00040003E4988800020088001203C4988821A
:100FB0003A4880880121C902884338498880084618
:100FC0008088012109038843344988803548007DA1
:100FD000334988723348807D48723248408D488555
:100FE0003048808B08852F48808F88812D4840307D
:100FF000007808742B484030808848822948403067
:10100000807848742748C18B684641802548018C08
:10101000684601802449009808662248418C684649
:1010200041802048818C684601801F4900984866AD
:101030001C48C18C684641801A48018D6846018071
:10104000194900988866174800791549887015482D
:1010500081791348C1701348017A11480171114810
:10106000817A0F4841710F48017B0D4881710D480D
:10107000817B0B48C1710B48017C0948017208BD96
:10108000A8000020DC050000B8000020B00000200F
:10109000CDCCCC3D9C000020A200002054000020BC
:1010A000A8070020940F0020E40E0020F8B508F0F7
:1010B000C5FBA149886C0021FFF7A6FB23D89E49F8
:1010C000886C9E490968FFF79FFB12D89C480078FE
:1010D000401C9B490870084600780A283BDB00202A
:1010E000087098488088202188432030954988805E
:1010F00031E000209249087092488088202188437E
:101100009049888027E0904800680121C90748403D
:1011100004468948816C2046FFF776FB12D8884840
:101120000078401C86490870084600780A2812DBBF
:10113000002008708348808820218843203081491E
:10114000888008E000207E4908707E488088202141
:1011500088437C4988807849C86C0021FFF754FB9C
:1011600023D87549C86C79490968FFF74DFB12D837
:1011700077480078401C76490870084600780A28AD
:101180003BDB002008706F48808840218843403056
:101190006C49888031E000206D490870694880887A
:1011A000402188436749888027E06A480068012118
:1011B000C907484004466048C16C2046FFF724FB3D
:1011C00012D863480078401C6149087008460078CE
:1011D0000A2812DB002008705A4880884021884382
:1011E00040305849888008E0002059490870554827
:1011F000808840218843534988804F4A916C564AE1
:10120000D069FEF7E1FF5449C8614B4AD16C524A9C
:101210009069FEF7D9FF50498861474A116D4E4ADF
:10122000106AFEF7D1FF4C4908624C480088401C08
:101230004A490880084600880A285DDB4649C86993
:10124000FFF780FA0646464A464BFFF743F9044645
:10125000FFF7B4FA4049C8618869FFF773FA04469A
:101260003F4A404BFFF736F90646FFF7A7FA3A49DF
:101270008861086AFFF766FA0646394A394BFFF774
:1012800029F90446FFF79AFA334908622A48406868
:101290004862C86934490968FEF7E7FF0646FFF768
:1012A00051FA4900490804460022304BFFF772FA10
:1012B00010D3294988692E490968FEF7D6FF0646EA
:1012C000FFF740FA4900490804460022274BFFF780
:1012D00061FA0ED21B4880882021884320301949AA
:1012E00088801D48C069204908601B4880692049E2
:1012F0000860002019490880124800798006C00F54
:10130000002805D10F4800794006C00F002807D0FB
:101310000C4880881021884310300A4988800AE0F0
:101320000848808810218843064988801148007841
:10133000401C10490870F8BDE40E00201400002085
:101340001100002054000020180000201C00002084
:101350001000002020000020A8070020040000202A
:101360009A9999999999B93F080000200000E03FA7
:101370000C0000200200002010B5022000F018FD33
:1013800010BD000010B505F027FD03A006F048FDD4
:10139000082000F00DFD10BD656E746572203335B8
:1013A000350D0A0010B50120400200F001FD10BD0E
:1013B0007047000010B501F0E3F803F063FE04F09D
:1013C0005DF8072001F01CF9002210210E4800F002
:1013D00008FE002208210520000700F002FE00227E
:1013E0000121C9030520000700F0FBFDFFF7C2FC47
:1013F00005F0F2FC08F0B6F903F048FA03F07EFFBE
:1014000004F002FF10BD000000040050F8B50446CF
:1014100000250026002700BF5020005D012801D1D3
:101420000220F8BD01215020015500BF20688068CE
:101430008007800F012806D1206800680840002836
:1014400001D0012000E00020002841D1606DFF2183
:10145000013188430221084360652068C06887071E
:10146000BF0F2068C068800880002168C8602068BD
:1014700080680121C90708432168886000F0B8FD31
:10148000064611E000F0B4FD801B0A280CD9606DFF
:101490000221884310210843606500BF00215020CD
:1014A000015500BF0120BCE720688068C00FC0075D
:1014B0000121C9078842E5D02068C0683843216807
:1014C000C860606D0221884301210843606504E023
:1014D000606D202108436065012500BF0021502078
:1014E000015500BF28469CE770B504460D4600BF75
:1014F0005020005D012801D1022070BD0121502043
:10150000015500BF20688068042108408008002839
:101510000AD0606D20210843606500BF0021502083
:10152000015500BF0120E8E72D496868884229D0AD
:101530002068806A29684903490B0843216888624A
:1015400028684003400B274908400121890488424C
:1015500008D12548806849010843234988600A204A
:10156000FFF752FB28684003400B20490840012147
:10157000490488422CD11C488068490108431A4913
:10158000886025E02068806A29684903490B884300
:101590002168886228684003400B124908400121F5
:1015A0008904884205D110488068490188430E4962
:1015B000886028684003400B0C4908400121490419
:1015C000884205D1084880684901884306498860F7
:1015D00000BF00215020015500BF00208DE7000012
:1015E00001100000000004480027014000000244F0
:1015F0000146486D704701460868006C704700005E
:1016000010B50446002C01D1012010BD606D0028EA
:1016100006D1A065002150200155204600F00EF9AA
:10162000606D10210840102806D0206880680421D1
:101630000840800800280AD0606D102108436065CA
:1016400000BF00215020015500BF0120DDE7606D83
:10165000FF210131884302210843606520688068CA
:101660008007800F012807D120680068C007C00FDD
:10167000002801D0012000E0002000283AD100BF5E
:10168000032189076068884207D049426068884220
:1016900003D04900606888420CD12068006980004E
:1016A0008008216808612068006961680843216832
:1016B000086112E0206800698000800821680861E4
:1016C0005C4880680F21890488435A49886008462D
:1016D0008068616808435749886000BF2068C06817
:1016E000182188432168C8602068C068A168084341
:1016F0002168C8604F4880680121490688434D49E8
:10170000886008468068A18E490608434949886078
:1017100020688068012109070840002804D120685A
:1017200080680843216888602068C0684249084092
:101730002168C8602169E068022901D1042100E024
:10174000002108432021095D490308432C21095D3C
:1017500049000843216B0843A16989030843E169F3
:10176000C90308432168C96808432168C860FF218C
:10177000C231606A884207D0A16A606A0843216862
:10178000C96808432168C8602120005D012813D181
:101790002020005D002807D12068C06801210904CD
:1017A00008432168C86007E0606D20210843606538
:1017B000A06D01210843A065E06B012817D12068C6
:1017C0000069FF218900884321680861216C606CF1
:1017D0000843A16C0843216809690843216808612E
:1017E0002068006901210843216808610BE0206836
:1017F0000069C007C00F002805D0206800694008B4
:1018000040002168086120684069C008C000216864
:10181000486120684069A16B084321684861002045
:10182000A065606D022188430121084360650020A6
:10183000EBE60000002701401902FEFF10B586B05C
:101840000446142101A8FEF7B4FC1249206888421E
:101850001ED11148406B491508430F49486300BF2A
:101860000846C06A012108430B49C8620846C06A9D
:10187000C007C00F009000BF00BF042001900320EC
:1018800002900020039001A90520000700F0A0FAB3
:1018900006B010BD0024014000100240F8B5044617
:1018A0000D46002600276069082801D1082711E0AD
:1018B0002068C068C007C00F00280AD0606D2021D2
:1018C0000843606500BF00215020015500BF012082
:1018D000F8BD0C2700F08CFB064614E0681C0028BD
:1018E00011D0002D04D000F083FB801BA8420AD940
:1018F000606D04210843606500BF00215020015540
:1019000000BF0320E4E72068006838400028E5D0E5
:10191000606D01214902084360652068C0680321A9
:1019200089020840002826D12020005D002822D10D
:10193000206800680821084008281CD120688068B9
:1019400004210840800800280DD1206840680C213F
:10195000884321684860606DFF210131884301217F
:101960000843606507E0606D202108436065A06D55
:1019700001210843A065A069002802D10C2021683C
:1019800008600020A4E7000070B504460025206828
:10199000806804210840800800282BD100BF502017
:1019A000005D012801D1022070BD012150200155A8
:1019B00000BFE069012803D02046FFF789F90546FA
:1019C000002D18D1606D0D490840FF2101310843F9
:1019D00060650020A06500BF00215020015500BFB8
:1019E0001C20216808602068806804210843216861
:1019F000886000E002252846D6E70000FEF1FFFFE0
:101A000070B50446002500BF5020005D012801D1BB
:101A1000022070BD01215020015500BF2046FFF774
:101A2000BDF80546002D0CD12046FFF703F9054609
:101A3000002D06D1606DFF2101318843012108434B
:101A4000606500BF00215020015500BF2846E0E737
:101A500070B5044600252520005D022803D004202F
:101A6000E063012520E0206800680E21884321689A
:101A700008602068006840084000216808601C2158
:101A8000606C084001218140206C416001212520CB
:101A9000015500BF00212420015500BFA06B002884
:101AA00002D02046A16B8847284670BD70B5044619
:101AB000206C0568206806681C20616C01400420C9
:101AC0008840284000281DD004203040002819D02C
:101AD0002068006820210840002805D1206800689F
:101AE00004218843216808601C21606C084004219F
:101AF0008140206C4160206B00285AD02046216B29
:101B0000884756E01C20616C014002208840284034
:101B1000002825D002203040002821D0206800680D
:101B200020210840002808D1206800680A21884345
:101B3000216808600121252001551C21606C0840A6
:101B400002218140206C416000BF0021242001550A
:101B500000BFE06A00282CD02046E16A884728E0D0
:101B60001C20616C0140082088402840002820D0BB
:101B70000820304000281CD0206800680E218843CF
:101B8000216808601C21606C084001218140206CA4
:101B900041600120E06301212520015500BF0021A3
:101BA0002420015500BF606B002802D02046616BE5
:101BB000884770BD70B50446002C01D1012070BD6E
:101BC000244A2168881A1421FEF792FA8000606482
:101BD0002048083820640221252001552068056826
:101BE0001D480540E168A068084321690843616910
:101BF0000843A1690843E1690843216A0843054392
:101C00002068056001218903A068884217D0114827
:101C10007830806A1C22616C11400F228A40904308
:101C20000C49783188621C22616C114060688840E0
:101C300008497831896A084306497831886200206A
:101C4000E0630121252001550021242001550020B9
:101C5000B5E70000080002400F80FFFFF8B504461A
:101C60000D4616461F460020009000BF2420005D50
:101C7000012801D10220F8BD01212420015500BF17
:101C80002520005D01282DD10221252001550020AD
:101C9000E0632068006840084000216808603B4617
:101CA000324629462046FFF741F9206B002806D02E
:101CB000206800680E210843216808600BE0206856
:101CC00000680421884321680860206800680A21B0
:101CD00008432168086020680068012108432168E2
:101CE000086006E000BF00212420015500BF02204B
:101CF00000900098BFE770B5044600F079F90646F9
:101D00002546681C002800D06D1C00BF00F070F94B
:101D1000801BA842FAD370BD10B5044601204002D2
:101D2000844202D1012015490870082C15D10120E8
:101D300013490870002011490870124908701248B0
:101D400001F084FDFFF7B8F810A006F069F8042050
:101D500004F0B6F8042004F0B3F8022C0CD10122F0
:101D600011460D4800F03DF9012204210A4800F017
:101D700038F90AA006F054F810BD00003800002021
:101D8000430000205F000020540C0020656E746545
:101D900072203335350D0A0000040050456E74651D
:101DA0007220344720496E74657272757074000039
:101DB00010B50446054840692040002804D0034877
:101DC00044612046FFF7A8FF10BD00000004014059
:101DD00070B50346002200240020DFE00126964073
:101DE0000D6835402C46002C77D04D68022D02D06E
:101DF0004D68122D15D1D508AE001D462035A859C5
:101E00005507EE0E0F25B5400646AE433046560741
:101E1000F60E0D69B5402843D508AD001E462036A4
:101E200070514D68012D08D04D68022D05D04D68C8
:101E3000112D02D04D68122D18D198685600032537
:101E4000B5400646AE4330465600CD68B5402843FF
:101E500098605868012595400646AE4330461026E6
:101E60004D6835402D099540284358601868560044
:101E70000325B5400646AE4330460D79AD07AD0F9C
:101E80005600B54028431860D86856000325B54071
:101E90000646AE43304656008D68B5402843D860AC
:101EA000012636074D683540B54276D13E4D6D6B03
:101EB000012635433C4E75633C4D9608B600A85943
:101EC00095072E0F0F25B5400646AE433046052533
:101ED0002D07AB4202D100251AE05EE0344DAB4243
:101EE00001D1012514E0334DAB4201D102250FE0B1
:101EF000314DAB4201D103250AE0304DAB4201D157
:101F0000042505E02E4DAB4201D1052500E0062554
:101F10009607360FB5402843244D9608B600A851C1
:101F2000284D28680546A5432846012636044D68F5
:101F30003540B54202D1054625432846214D28604B
:101F400068680546A5432846012676044D68354055
:101F5000B54202D10546254328461A4D6860A86857
:101F60000546A5432846012636054D683540B5424D
:101F700002D1054625432846124DA860E86805466B
:101F8000A5432846012676054D683540B54202D165
:101F90000546254328460B4DE860521C0D68D54088
:101FA000002D00D01AE770BD00100240080001406B
:101FB0000004005000080050000C005000100050B9
:101FC000001C005000040140024613690B40002B26
:101FD00001D0012000E00020704742694A40426180
:101FE0007047002A01D0816100E0816270470000E3
:101FF000014800687047000064000020024641204C
:10200000805C20282FD100BF4020805C012801D1B6
:102010000220704701234020835400BF2423412025
:102020008354106800684008400013681860106806
:10203000006801231B039843136818601068006848
:102040000843136818601068006801231843136878
:10205000186020234120835400BF00234020835474
:1020600000BF0020D5E70220D3E710B502460B469B
:102070004120805C20282ED100BF4020805C0128B8
:1020800001D1022010BD01244020845400BF24242B
:1020900041208454106800684008400014682060A3
:1020A000106801680F2424020846A0430146180264
:1020B000014310680160106800680124204314681F
:1020C000206020244120845400BF002440208454F8
:1020D00000BF0020D6E70220D4E7000010B5044678
:1020E000002C01D1012010BD4120005D002805D148
:1020F000002140200155204600F002FA2421412011
:1021000001552068006840084000216808600F21E0
:102110000906606888432168086120688068012199
:10212000C903884321688860E068012806D101213D
:10213000C903A06808432168886005E0212189025D
:10214000A068084321688860E068022802D1800204
:102150002168486020684068144908432168486045
:102160002068C0680121C90388432168C86061698B
:1021700020690843A169090208432168C860216AEF
:10218000E06908432168086020680068012108436D
:102190002168086000206064202141200155002052
:1021A000206300214220015500209CE700800002AE
:1021B000FFB583B004460C9F0E9E4120005D202891
:1021C0007ED1002F02D00D98002805D101204002B9
:1021D0006064012007B0F0BD00BF4020005D012811
:1021E00001D10220F6E701214020015500BFFFF791
:1021F000FFFE054619230122D1032046009502F077
:102200004FFC002801D00120E4E7222141200155A4
:102210004021422001550020606467620D9860856E
:102220000020606300960195204604A90EC902F0C3
:102230009BFB002806D000BF00214020015500BFB5
:102240000120C7E7608DFF280CD9FF202085414879
:102250000090208DC2B201231B062046049902F093
:1022600003FC0BE0608D20853A480090208DC2B2BF
:1022700001235B062046049902F0F6FB00BF3346BB
:10228000002204212046009502F00AFC002801D01B
:1022900001209FE72068406A616A0870606A401CFC
:1022A0006062208D401E2085608D401E6085608D9F
:1022B00000282BD0208D002828D13346002200E0B2
:1022C00045E080212046009502F0EAFB002801D07D
:1022D00001207FE7608DFF280CD9FF20208500209A
:1022E0000090208DC2B201231B062046049902F003
:1022F000BBFB0BE0608D208500200090208DC2B2DA
:1023000001235B062046049902F0AEFB608D002895
:10231000B5D12A463146204602F0EEFB002801D016
:10232000012057E720202168C861206840680A49D9
:1023300008402168486020214120015500214220A9
:10234000015500BF4020015500BF002042E7022098
:1023500040E700000024008000E800FEFFB583B0E5
:1023600004460C9F0E9E4120005D20287ED1002F48
:1023700002D00D98002805D10120400260640120A0
:1023800007B0F0BD00BF4020005D012801D1022050
:10239000F6E701214020015500BFFFF729FE054661
:1023A00019230122D1032046009502F079FB002871
:1023B00001D00120E4E721214120015540214220A4
:1023C00001550020606467620D986085002060639D
:1023D00000960195204604A90EC902F005FB0028CD
:1023E00006D000BF00214020015500BF0120C7E7F3
:1023F000608DFF280CD9FF20208500200090208DC3
:10240000C2B201231B062046049902F02DFB0BE00B
:10241000608D208500200090208DC2B201235B06D4
:102420002046049902F020FB00BF2A463146204690
:1024300002F08FFB002801D00120A1E7606A00783C
:1024400021688862606A401C6062608D401E608501
:10245000208D401E2085608D00282BD0208D0028E7
:1024600028D1334600228021204600E043E0009539
:1024700002F016FB002801D0012081E7608DFF28C3
:102480000CD9FF20208500200090208DC2B20123AE
:102490001B062046049902F0E7FA0BE0608D2085C8
:1024A00000200090208DC2B201235B0620460499D3
:1024B00002F0DAFA608D0028B7D12A46314620466C
:1024C00002F01AFB002801D0012059E720202168E2
:1024D000C861206840680949084021684860202197
:1024E0004120015500214220015500BF40200155E7
:1024F00000BF002044E7022042E7000000E800FEA1
:1025000010B586B00446142101A8FDF752FE154906
:102510002068884223D100BF1348C06A02210843C3
:102520001149C8620846C06A02210840009000BFF5
:1025300000BF03208002019012200290012003902E
:10254000032004900620059001A90848FFF740FCED
:102550000548806B0121890508430349886306B05B
:1025600010BD000000580040001002400004005060
:1025700002480068401C0149086070476400002060
:1025800010B5002408480068402108430649086047
:10259000002000F00BF8002801D0012401E000F039
:1025A0001FF8204610BD00000020024070B5044610
:1025B00000257D21C90009480068FDF799FD064600
:1025C00001F07AFC002801D0012504E00022214618
:1025D000501E00F02DF8284670BD00006800002055
:1025E0000648406B01210843044948630846806B54
:1025F0000904084301498863704700000010024045
:1026000000BFC206D20E01219140024A116000BFF4
:102610007047000080E100E000BFC206D20E012139
:102620009140024A116000BF7047000000E100E0E5
:1026300070B504460D4616462946204603F0D6F9E5
:1026400070BD0000024949688143014A51607047EA
:1026500000700040F8B5044620212068084020287A
:102660007CD120680840202800D100BF002789487D
:10267000806B012109070840002805D18548806B3F
:10268000084384498863012783480068FF2101319A
:102690000840002816D18048006808437E49086039
:1026A000FFF7A6FC064606E0FFF7A2FC801B6428A5
:1026B00001D90320F8BD78480068FF2101310840A6
:1026C0000028F1D073480568032109050D406068B2
:1026D0000840A8420DD0091160680840884208D11E
:1026E0006C480068012149040840884201D101205A
:1026F000E0E76848403000690321090408400546C6
:10270000002D3DD060680840A84239D020212068C3
:102710000840202834D15F48403000690321090473
:10272000884305465B48403000690121C9040843DD
:10273000584940310861084600690121C9048843AD
:1027400054494031086108460561801528408915C3
:10275000884215D1FFF74CFC064608E039E0FFF748
:1027600047FC801B4D49884201D90320A2E7494814
:1027700040300069012149020840400A0028EED09B
:1027800000BF00BF032109046068084088420AD1E5
:10279000404800680901884303221205616811401E
:1027A00008433C49086000BF3A48403000690322B2
:1027B000120461681140084336494031086100BF86
:1027C000012F05D13348806B8905884331498863DF
:1027D00000BF2078C007C00F002809D02D48403026
:1027E000C06880088000A16808432A494031C86059
:1027F000022120680840022809D126484030C068DC
:102800000C218843E168084322494031C860042113
:102810002068084004280AD11E484030C0680321BF
:1028200089028843216908431A494031C860082158
:102830002068084008280AD116484030C0680321A3
:10284000090388436169084312494031C860FF2188
:1028500001312068084088420AD10E484030C068E3
:10286000032109048843A16908430A494031C8602B
:1028700080212068084080280AD106484030C0687E
:10288000032189048843E169084302494031C86053
:1028900000200FE700100240007000408813000085
:1028A000F8B504460D46002C01D10120F8BD794849
:1028B0000068C007C00FA8420ED2764800684008E2
:1028C000400028437349086008460068C007C00FED
:1028D000A84201D00120E9E702212068084002282F
:1028E00007D16D48C068F0218843A16808436A4950
:1028F000C8602078C007C00F00284CD0606802284C
:1029000009D165480068012149040840400C0028AD
:1029100024D10120CAE76068032809D15E48006815
:10292000012149060840400E002817D10120BDE7CB
:102930006068012808D158480068042108408008D0
:1029400000280BD10120B1E753480068012149025A
:102950000840400A002801D10120A7E74E48C0687E
:1029600080088000616808434B49C860FFF740FB5E
:102970000646606802280FD107E0FFF739FB801B8D
:102980004649884201D9032090E74348C0680C219A
:1029900008400828F1D134E0606803280FD107E02F
:1029A000FFF726FB801B3D49884201D903207DE7C4
:1029B0003948C0680C2108400C28F1D121E060683A
:1029C00001280FD107E0FFF713FB801B3349884232
:1029D00001D903206AE73048C0680C210840042868
:1029E000F1D10EE007E0FFF703FB801B2B49884283
:1029F00001D903205AE72848C0680C210840002864
:102A0000F1D124480068C007C00FA8420ED9214860
:102A100000684008400028431E49086008460068D6
:102A2000C007C00FA84201D001203FE70421206861
:102A30000840042808D11848C068072109028843C3
:102A4000E16808431449C860082120680840082844
:102A500009D11148C0680721C90288432169C9000A
:102A600008430D49C86000F049F80B49C968F022D5
:102A7000114009090A4A515CC8400A49086000200F
:102A8000FFF794FD0746002F01D038460EE70020DF
:102A90000CE70000002002400010024088130000F4
:102AA0001C99000868000020014800687047000079
:102AB0006800002000B5FFF7F7FF0549C968072245
:102AC00012021140090A034A515CC84000BD0000CF
:102AD000001002402C99000800B5FFF7E5FF0549FA
:102AE000C9680722D2021140C90A034A515CC84092
:102AF00000BD0000001002402C990008FEB52E48D1
:102B0000C7680C203840002845D0042804D0082885
:102B10000CD00C283ED10BE027480068102108405B
:102B2000002801D0254C00E0254C41E0254C3FE039
:102B30000F2080043840800C23490E5C0320800560
:102B40003840800D401C01901B48C06801210904D9
:102B50000840002807D01B49714308460199FDF73A
:102B6000C7FA054614E01448006810210840002800
:102B700007D01249714308460199FDF7B9FA054695
:102B800006E00F49714308460199FDF7B1FA054681
:102B90002C460DE000BF0848406807214903084063
:102BA000400B00900098401C01218140CC0300BFE5
:102BB00000BF2046FEBD00000010024000093D009D
:102BC0000024F40000127A0034990008FEB504468F
:102BD000002C01D10120FEBDFA48C7680C210F402E
:102BE000C06801210904084001902078C007C00F87
:102BF000002872D0082F04D00C2F0FD101988842E2
:102C00000CD1F0480068012149040840400C00281C
:102C100063D06068002860D10120DCE700BF01219B
:102C200009046068884205D1E64800680843E54920
:102C3000086027E005210904606888420ED1E14858
:102C40000068012189040843DE49086008460068DD
:102C5000012109040843DB49086013E0D9480068F2
:102C6000012109048843D74908600846006801210A
:102C700009040840009000BFD248006889008843DA
:102C8000D049086000BF6068002813D0FFF7B0F992
:102C9000054606E0FFF7ACF9401B642801D9032084
:102CA00099E7C8480068012149040840400C002801
:102CB000F0D012E0FFF79CF9054606E0FFF798F91F
:102CC000401B642801D9032085E7BE480068012124
:102CD00049040840400C0028F0D102212068084037
:102CE00002286BD1E66820203040002809D0B54882
:102CF000006820210843B3490860202130468843FA
:102D00000646042F04D00C2F33D10198002830D16F
:102D1000AC480068042108408008002803D0002E39
:102D200001D1012057E7A74840681F2109028843C5
:102D3000216909020843A34948600846006809213F
:102D4000884330439F490860FFF7D8FE9D49C96812
:102D5000F022114009099C4A515CC8409B49086017
:102D60000020FFF723FC0290029800283FD0029831
:102D700031E7002E23D0934800680921884330436F
:102D800090490860FFF734F9054606E0FFF730F98F
:102D9000401B022801D903201DE78A48006804214E
:102DA000084080080028F1D0864840681F210902A9
:102DB00088432169090208438249486017E0814835
:102DC0000068400840007F490860FFF711F9054698
:102DD00006E0FFF70DF9401B022801D90320FAE6AF
:102DE000784800680421084080080028F1D11021AB
:102DF00020680840102867D1002F36D1714800683C
:102E000049010840400A002804D0A069002801D1E7
:102E10000120E0E66B484068072149038843216AA6
:102E2000084368494860084640680002000A217F5C
:102E30000906084363494860206A400B401C012191
:102E40008140C8035F49C968F022114009095E4A00
:102E5000515CC8405D4908600020FFF7A7FB029065
:102E6000029800284BD00298B5E6A06900282CD023
:102E700054480068FF210131084352490860FFF7B8
:102E8000B7F8054606E0FFF7B3F8401B022801D962
:102E90000320A0E64B480068012149020840400A8F
:102EA0000028F0D047484068072149038843216A39
:102EB000084344494860084640680002000A217FF0
:102EC000090608433F49486019E03E480068FF2171
:102ED000013188433B490860FFF78AF8054606E060
:102EE000FFF786F8401B022801D9032073E6354816
:102EF0000068012149020840400A0028F0D1082159
:102F000020680840082839D1606900281BD02D4866
:102F100040300069012108432A4940310861FFF728
:102F200067F8054606E0FFF763F8401B022801D961
:102F3000032050E623484030006902210840400841
:102F40000028F0D01AE01F484030006940084000D7
:102F50001C4940310861FFF74BF8054606E0FFF7D2
:102F600047F8401B022801D9032034E615484030B9
:102F700000690221084040080028F0D1042120689F
:102F80000840042879D1002000900E48806B890603
:102F90000840002806D10B48806B08430949886324
:102FA000012000900A480068FF21013108400028F4
:102FB0001ED107480068084305490860FFF718F864
:102FC00005460EE0001002401C9900086800002031
:102FD00000700040FFF70CF8401B642801D9032063
:102FE000F9E587480068FF21013108400028F1D049
:102FF00000BFFF210131A068884205D181480069E6
:1030000008438049086130E0A06800280DD17D4860
:103010000069FF21013188437A4908610846006947
:1030200009158843774908611FE005210902A06856
:1030300088420DD173480069012189020843714912
:10304000086108460069891508436E4908610CE06B
:103050006C480069FF21013188436A4908610846CC
:103060000069091588436749086100BFA068002806
:1030700015D0FEF7BDFF054608E031E0FEF7B8FFCA
:10308000401B6149884201D90320A4E55D480069DD
:10309000012149020840400A0028EFD013E0FEF762
:1030A000A7FF054607E0FEF7A3FF401B56498842ED
:1030B00001D903208FE553480069012149020840E6
:1030C000400A0028EFD10098012808D14D48403827
:1030D000806B0121090788434A494039886300BF52
:1030E000606A00284CD00C2F69D0606A022848D151
:1030F0004448403800680121090688434149403965
:103100000860FEF775FF054606E0FEF771FF401BFD
:10311000022801D903205EE53A48403800680121C1
:1031200049060840400E0028EFD1E16AA06A084332
:10313000216B084333494039C968FD221204914389
:10314000084330494039C860084600680121090633
:1031500008432C4940390860FEF74AFF054606E05F
:10316000FEF746FF401B022801D9032033E525481E
:1031700040380068012149060840400E0028EFD081
:103180003CE02048403800680121090688431D4979
:1031900040390860FEF72CFF054606E0FEF728FFE1
:1031A000401B022801D9032015E516484038006865
:1031B000012149060840400E0028EFD11EE0606A58
:1031C000012800D107E50F484038C068019001216F
:1031D000090401980840A16A88420DD10F21890491
:1031E00001980840E16A884206D1032189050198C7
:1031F0000840216B884201D00120ECE40020EAE481
:1032000000700040401002408813000070B5044672
:1032100000BF2020005D012801D1022070BD0121E6
:103220002020015500BF02212120015500BFCA20E6
:103230002168486253202168486200BF2068806886
:103240000121890288432168886020688068012103
:103250008903884321688860FEF7CAFE054615E0A9
:10326000FEF7C6FE401B7D21C90088420ED900BF73
:10327000FF202168486200BF03212120015500BFC3
:1032800000212020015500BF0320C7E72068C06847
:103290000421084080080028E2D000BFFF202168F8
:1032A000486200BF01212120015500BF00212020DC
:1032B000015500BF0020B1E705490968062903D27E
:1032C0000121044A117002E00221024A1170704784
:1032D000940400205F00002010B504462068C068F8
:1032E000012189020840800A00280AD02046FFF701
:1032F000E3FF2068C0688021084006490843216830
:10330000C8600120000504494861012121200155C0
:1033100010BD00007FFBFFFF00040140F0B5064632
:103320000C46174630684068124908400546FF20A1
:1033300000042840000CE0701F2000022840000A12
:103340006070A806800EA070072040032840400B44
:103350002070002F0BD1E07802F008FCE07060785C
:1033600002F004FC6070A07802F000FCA070002065
:10337000F0BD00003FFFFF00F0B505460C461746C4
:103380002868806A6060286800694004400CA0607A
:10339000286800681249084006463F200004304073
:1033A000000C20707F2000023040000A6070700620
:1033B000400EA070012080053040000CE070002F0E
:1033C0000BD1207802F0D2FB2070607802F0CEFBA7
:1033D0006070A07802F0CAFBA0700020F0BD000071
:1033E0007F7F7F0010B50446002C01D1012010BD65
:1033F0002120005D002805D1002120200155204614
:1034000000F06EF802212120015500BFCA2021687A
:10341000486253202168486200BF204602F0C0FB8A
:10342000002809D000BFFF202168486200BF0421A6
:10343000212001550120DAE72068806827490840EB
:1034400021688860216960680843A1690843216890
:1034500089680843216888602168E06808612068FD
:103460000069218909040843216808612068C0684F
:10347000802188432168C8602068C06C8008800073
:103480002168C8646169E06908432168C96C084320
:103490002168C8642068806820210840002813D172
:1034A000204600F06DF900280ED000BFFF202168F3
:1034B000486200BF04212120015500BF00212020C7
:1034C000015500BF012092E700BFFF20216848623C
:1034D00000BF012121200155002088E7BFFF8FFF99
:1034E00010B504460949206888420ED10848006991
:1034F00001218904084306490861002201210220B4
:10350000FFF796F80220FFF787F810BD002800406B
:1035100040100240F7B504460D4600BF2020005D74
:10352000012801D10220FEBD01212020015500BF4C
:103530000221212001550298002809D16878102124
:103540000840102804D16878EF2108400A306870DC
:103550000298002811D1E87802F014FB070468787B
:1035600002F010FB00020743A87802F00BFB0743B0
:10357000287840033E4606430AE0E878000469786C
:1035800009020843A97808432978490308430646F5
:1035900000BFCA202168486253202168486200BFEA
:1035A000204602F0FDFA00280ED000BFFF2021685F
:1035B000486200BF04212120015500BF00212020C6
:1035C000015500BF0120AEE719483040216848602E
:1035D0002068C068802188432168C86020688068AE
:1035E00020210840002813D1204600F0C9F8002807
:1035F0000ED000BFFF202168486200BF04212120B7
:10360000015500BF00212020015500BF01208AE79D
:1036100000BFFF202168486200BF01212120015521
:1036200000BF00212020015500BF00207BE70000E3
:103630003FFFFF00F7B504460D4600BF2020005DA8
:10364000012801D10220FEBD01212020015500BF2B
:10365000022121200155029800281BD12068806892
:1036600040210840002800D002E00020E87000BFA0
:10367000287802F087FA0704687802F083FA0002DB
:103680000743A87802F07EFA0743E87800043E4634
:10369000064314E02068806840210840002800D0DC
:1036A00002E00020E87000BF287800046978090271
:1036B0000843A9780843E97809040843064600BF8F
:1036C000CA202168486253202168486200BF204612
:1036D00002F066FA00280ED000BFFF202168486281
:1036E00000BF04212120015500BF002120200155E9
:1036F00000BF0120A7E7214830402168086020680A
:103700008068012189048843216888602969E86804
:103710000843216889680843216888602068C06878
:10372000802188432168C860206880682021084083
:10373000002813D1204600F023F800280ED000BF47
:10374000FF202168486200BF04212120015500BFED
:1037500000212020015500BF012074E700BFFF2099
:103760002168486200BF01212120015500BF0021CE
:103770002020015500BF002065E700007F7F7F000B
:1037800070B504462068C068A02188432168C860DD
:10379000FEF72EFC054608E0FEF72AFC401B7D21C3
:1037A000C900884201D9032070BD2068C06820216B
:1037B00008400028F0D00020F6E710B50446002CA1
:1037C00001D1012010BD606A002800D100BF002196
:1037D000A1625120005D002804D1502001552046EF
:1037E00000F034F802215120015520680068402182
:1037F000884321680860A16860680843E16808435D
:10380000216908436169084301225202A1691140FC
:103810000843E1690843216A0843A16A0843216813
:103820000860A069000C04210840616A084321680F
:1038300048602068C069910088432168C861002001
:1038400060650121512001550020BBE710B586B00D
:103850000446142101A8FCF7ACFC284920688842E2
:1038600023D12748406B891408432549486300BF8A
:103870000846C06A012108432149C8620846C06A57
:10388000C007C00F009000BF00BFE02001900220E1
:10389000029000200390032004900020059001A9CD
:1038A00005200007FEF794FA26E0164920688842B2
:1038B00022D11348806B091408431149886300BF63
:1038C0000846C06A022108430D49C8620846C06A1A
:1038D00002210840009000BF00BF07204003019074
:1038E0000220029000200390032004900020059005
:1038F00001A90548FEF76CFA06B010BD0030014082
:10390000001002400038004000040050FFB583B0B2
:10391000044616461D4600200290E068002804D1A7
:10392000E068002802D1012E00D900BFFF21053137
:10393000606888420ED1A06800280BD10421512074
:10394000015533460095049A1146204600F088F947
:1039500007B0F0BD00BF5020005D012801D102205A
:10396000F6E701215020015500BFFEF741FB074655
:103970005120005D012802D00220029082E00498CC
:10398000002801D0002E02D1012002907AE004210B
:1039900051200155002060650498A063A687E68742
:1039A00000202063A086E086206460644903A0684C
:1039B000884205D120680068491088432168086062
:1039C0002068006840210840402804D02068006832
:1039D000084321680860E068002822D11DE02068C3
:1039E0008068C007C00F00280AD02068007BA16B48
:1039F0000870A06B401CA063E08F401EE0870CE0C5
:103A0000FEF7F6FAC01BA84202D3681C002801D1B9
:103A1000002D02D10320029034E0E08F0028DED197
:103A200021E01DE020688068C007C00F00280AD090
:103A30002068C068A16B0880A06B801CA063E08F29
:103A4000401EE0870CE0FEF7D3FAC01BA84202D369
:103A5000681C002801D1002D02D10320029011E042
:103A6000E08F0028DED13A462946204602F030FA9F
:103A7000002801D020206065606D002801D0012061
:103A8000029000BF01215120015500BF00215020AC
:103A9000015500BF02985BE7FFB583B004461646A8
:103AA0001D4600200290E068002804D1E06800284C
:103AB00002D1012E00D900BF00BF5020005D0128B7
:103AC00002D1022007B0F0BD01215020015500BFF6
:103AD000FEF78EFA074601965120005D012802D0BC
:103AE00002200290B2E00498002801D0002E02D1FA
:103AF00001200290AAE003215120015500206065B9
:103B000004982063A686E6860020A063A087E0874D
:103B1000606420640121C903A068884205D120683F
:103B20000068491008432168086020680068402147
:103B30000840402804D020680068084321680860D5
:103B40000121C902E068884232D16068002802D0B1
:103B50000198012809D1206B00882168C860206B7A
:103B6000801C2063E08E401EE0861DE02068806897
:103B70000221084002280AD1206B00882168C86011
:103B8000206B801C2063E08E401EE0860CE0FEF778
:103B90002FFAC01BA84202D3681C002801D1002DB7
:103BA00002D10320029051E0E08E0028DED131E006
:103BB0006068002802D00198012809D1206B0078A4
:103BC00021680873206B401C2063E08E401EE08655
:103BD0001DE0206880680221084002280AD1206B7D
:103BE000007821680873206B401C2063E08E401E23
:103BF000E0860CE0FEF7FCF9C01BA84202D3681C6B
:103C0000002801D1002D02D1032002901EE0E08E99
:103C10000028DED13A462946204602F0AAF90028BB
:103C200001D020206065A068002809D100BF009065
:103C30002068C068009020688068009000BF00BFC6
:103C4000606D002801D00120029000BF01215120A9
:103C5000015500BF00215020015500BF029831E7F7
:103C6000FFB587B004461D46109E0120039000203A
:103C70000290E068002804D1E068002802D1012DFC
:103C800000D900BF00BF5020005D012802D10220F2
:103C90000BB0F0BD01215020015500BFFEF7A8F97F
:103CA00007465120005D04906068059006950498D1
:103CB00001280DD0FF2105310598884205D1A06863
:103CC000002802D10498042802D002200290E9E0E2
:103CD0000898002804D00998002801D0002D02D1AE
:103CE00001200290DEE05120005D042802D0052171
:103CF00051200155002060650998A063E587A587DC
:103D000008982063E586A58600202064606420680A
:103D1000006840210840402804D02068006808431B
:103D2000216808600121C902E06888424FD16068BB
:103D3000002802D00698012809D1206B008821684C
:103D4000C860206B801C2063E08E401EE08637E058
:103D50002068806802210840022811D1E08E0028E6
:103D60000ED0039801280BD1206B00882168C86011
:103D7000206B801C2063E08E401EE08600200390B4
:103D800020688068C007C00F00280ED0E08F002890
:103D90000BD02068C068A16B0880A06B801CA0635A
:103DA000E08F401EE08701200390FEF721F9C01B41
:103DB000B04205D3701C002802D00320029071E0AD
:103DC000E08E0028C4D1E08F0028C1D150E06068A7
:103DD000002802D00698012809D1206B00782168BC
:103DE0000873206B401C2063E08E401EE08639E0A3
:103DF0002068806802210840022811D1E08E002846
:103E00000ED0039801280BD1206B0078216808732D
:103E1000206B401C2063E08E401EE0860020039053
:103E200020688068C007C00F00280ED0E08F0028EF
:103E30000BD02068C068A16B0870A06B401CA06309
:103E4000E08F401EE08701200390FEF7D1F8C01BF1
:103E5000B04202D3701C002801D1002E02D10320F1
:103E600002901FE0E08E0028C2D1E08F0028BFD171
:103E70003A463146204602F07CF8002804D0012062
:103E80000290202060650DE0A068002809D100BFE5
:103E900001902068C068019020688068019000BF90
:103EA00000BF00BF01215120015500BF002150205B
:103EB000015500BF0298EBE670B504462546681E22
:103EC0000949884201D901200CE0681E0749486170
:103ED0000321081F01F08AFD0020044988610720A2
:103EE0000861002070BD0000FFFFFF0000E000E05F
:103EF00001460868C068012318430B68D860086849
:103F000080684207520F062A05D00868006801231E
:103F100018430B68186000207047000001460868CD
:103F2000C068400840000A68D06000BF0868006AA6
:103F3000064A1040002805D1086800684008400083
:103F40000A68106000BF00207047000011110000D7
:103F5000704710B5044620680069022108404008F7
:103F600000281CD02068C06808404008002816D0EF
:103F7000481F216808610120207620688069800739
:103F8000800F002803D02046FFF7E2FF05E020461F
:103F900000F09DF8204600F09BF800202076206875
:103FA000006904210840800800281DD02068C068EE
:103FB00008408008002817D0C84321680861022003
:103FC000207620688069032109020840002803D078
:103FD0002046FFF7BDFF05E0204600F078F82046B8
:103FE00000F076F80020207620680069082108405B
:103FF000C00800281CD02068C0680840C0080028FD
:1040000016D0C84321680861042020762068C06962
:104010008007800F002803D02046FFF799FF05E0B6
:10402000204600F054F8204600F052F80020207698
:104030002068006910210840000900281DD0206870
:10404000C06808400009002817D0C84321680861EB
:10405000082020762068C069032109020840002852
:1040600003D02046FFF774FF05E0204600F02FF84C
:10407000204600F02DF80020207620680069C00757
:10408000C00F01214840484000280CD02068C0687B
:10409000084048404840002805D0C81E21680861F3
:1040A000204600F017F82068006940210840800988
:1040B00000280BD02068C06808408009002805D07F
:1040C000C84321680861204600F028F810BD7047F9
:1040D0007047000010B504460C4920680968884202
:1040E00005D10A48FFF71AFF0848FFF701FF084902
:1040F00020680968884208D103F060FE03F04CFD97
:1041000015220449044800F051FB10BD2C07002083
:10411000F006002068070020100A00207047704752
:1041200070470000FEB504462068C569206806682F
:10413000206887682807000F0190019800280ED199
:104140002020284000280AD020203040002806D017
:10415000206E002802D02046216E8847FEBD0198BF
:1041600000287DD0F807C00F002804D1FF2021309F
:1041700030400028F5D0E807C00F00280BD0FF2002
:1041800001303040002806D0012021680862E06F2D
:1041900001210843E0670220284000280AD0F807E0
:1041A000C00F002806D0022021680862E06F0421B9
:1041B0000843E0670420284000280AD0F807C00F11
:1041C000002806D0042021680862E06F022108431D
:1041D000E0670820284000280ED02020304000282A
:1041E00003D1F807C00F002806D008202168086214
:1041F000E06F08210843E067E06F002846D02020E8
:104200002840002809D020203040002805D0206E0A
:10421000002802D02046216E8847E06F0090206879
:10422000806840210840402804D0082100980840B8
:10423000002826D0204602F0A4FD20688068402196
:104240000840402819D12068806888432168886028
:10425000E06E00280DD02548E16E8863E06E00E036
:1042600015E0FDF7F5FB002810D0E06E816B884764
:104270000CE02046FFF754FF08E02046FFF750FF10
:1042800004E02046FFF74CFF0020E06766E70120CE
:104290000005284000280CD0012080053840002867
:1042A00007D001200005216808622046FFF737FF8C
:1042B00054E78020284000280AD080203040002881
:1042C00006D0606E002802D02046616E884745E720
:1042D00040202840002807D040203040002803D04C
:1042E000204602F060FD39E700BF37E7D16C0008D7
:1042F00010B50446002C01D1012010BDA069002892
:1043000000D000E000BF606F002805D100217020C0
:104310000155204600F02CF82420606720680068D2
:104320004008400021680860204602F0DFFD0128B7
:1043300000D1E2E7606A002802D0204602F018FCB3
:10434000206840680921C9028843216848602068C4
:1043500080682A21884321688860206800680121DC
:10436000084321680860204602F07AFCC5E7000097
:1043700010B586B00446142101A8FBF71AFF4F4977
:104380002068884267D100BF4D48C06A01210843B8
:104390004B49C8620846C06AC007C00F009000BF02
:1043A00000BF0846406B0121890308434449486324
:1043B000032040020190022002900020039002207E
:1043C00004900420059001A905200007FDF700FDD9
:1043D0003C483D4908600320486010213A4881600C
:1043E0000021C16080210161002141618161C161C1
:1043F000032109030162FDF7DDFB002801D0FCF772
:10440000D7FF00BF3048A066846200BF2D4814303B
:104410002E4908600320486000212C488160C1605B
:1044200080210161002141618161C1610162FDF76B
:10443000C1FB002801D0FCF7BBFF00BF2348E066AA
:10444000846200BF002211461B20FEF7F1F81B20FA
:10445000FEF7E2F82FE01E49206888422BD100BF0A
:104460001748C06A012108431549C8620846C06A56
:10447000C007C00F009000BF00BF0846806B01213D
:10448000C90408430E49886303200190022002906A
:1044900000200390022004900620059001A9052029
:1044A0000007FDF795FC002201210E20FEF7C0F861
:1044B0000E20FEF7B1F806B010BD00000038014034
:1044C000001002401C000240B80800200009002033
:1044D000004C004010B50346986F20287DD100297C
:1044E00001D0002A01D1012010BD012424039868C5
:1044F000A04208D11869002805D1C807C00F0028BC
:1045000001D00120F0E700BF7020C05C012801D17C
:104510000220E9E701247020C45400BF59655820E7
:10452000C2525A20C2520020186600BF2403986865
:10453000A0420AD11869002803D1294C5C20C4523A
:1045400024E0FF245C20C45220E0986800280AD1AF
:104550001869002803D1FF245C20C45216E07F2490
:104560005C20C45212E0012424079868A0420AD1BA
:104570001869002803D17F245C20C45206E03F2440
:104580005C20C45202E000245C20C45200BF002022
:10459000D8672220986718688068012420431C6827
:1045A000A060012424039868A04205D1186900285E
:1045B00002D10C48186601E00B48186600BF0024C1
:1045C0007020C45400BF18680068FF2421342043C1
:1045D0001C682060002087E7FFE7022084E70000D6
:1045E000FF010000156E0008816E000810B504463A
:1045F0002249206888420AD102F0BEFE2048214AA2
:104600001278811801222048FFF764FF35E01F4926
:104610002068884231D1FDF7EBFC1D4908601D4838
:1046200000781D491D4A1268885408460078002801
:1046300007D01A480068002803D1012017490860F4
:1046400008E016480068002804D014480068401CA0
:104650001249086011480068114908600F48006855
:10466000C82805D300200D49086001200D490870B5
:10467000012208490C48FFF72DFF10BD004C0040F7
:10468000100B002081000020900A0020003801401B
:104690007C0000206E0000204809002070000020EF
:1046A0007800002074000020100A0020FFB583B0BD
:1046B00004460D461746606F202875D1002D01D0A5
:1046C000002F02D1012007B0F0BD01210903A0682D
:1046D000884208D12069002805D1E807C00F0028CA
:1046E00001D00120EFE700BF7020005D012801D15B
:1046F0000220E8E701217020015500BF0020E0679B
:1047000021206067FDF774FC019050200753522070
:10471000075301210903A068884205D120690028B8
:1047200002D10026029502E02E460020029021E0F0
:1047300006980090002280212046019B02F0D6FDC1
:10474000002801D00320BEE7002E09D1029800887E
:10475000C005C00D216888620298801C029003E0A9
:10476000307821688862761C5220005B401E81B23E
:10477000522001535220005B0028D9D106980090A6
:10478000002240212046019B02F0B0FD002801D00C
:10479000032098E72020606700BF002170200155AA
:1047A00000BF00208FE7FFE702208CE770B50446CA
:1047B0000E461546606F20285BD1002E01D0002DDB
:1047C00001D1012070BD01210903A068884208D1F0
:1047D0002069002805D1F007C00F002801D0012072
:1047E000F0E700BF7020005D012801D10220E9E759
:1047F00001217020015500BFE6645020055352206E
:1048000005530020E06721206067A06E002820D0BB
:104810001948A16EC8621948A16E08631848A16EB4
:1048200048630020A16E886323681A4628322B460D
:10483000E16CA06EFDF712FA00280AD01020E067A4
:1048400000BF00217020015500BF202060670120BB
:10485000B8E740202168086200BF002170200155A0
:1048600000BF20688068802108432168886000209C
:10487000A8E70220A6E700003B6D0008756D000860
:10488000E96C00087047704700BFFEE710B500F004
:1048900061FE10BD016889690222114049080029A2
:1048A00002D000210268916201688969C907C90FB5
:1048B000012251405140002904D101688969114306
:1048C000026891617047000070B504460D461646B7
:1048D0002068806910210840000900283FD018E0B6
:1048E000681C002815D0FDF783FB801BA84201D867
:1048F000002D0ED1606C20210843606441200155D9
:1049000000214220015500BF4020015500BF012079
:1049100070BD206880692021084040090028DFD050
:1049200010202168C86120202168C8612046FFF757
:10493000B1FF206840680B49084021684860606CFE
:1049400004210843606420214120015500214220B8
:10495000015500BF4020015500BF0120D8E70020CD
:10496000D6E7000000E800FEFFB581B0044615461A
:104970001E460A9F1B48F2B200230090204602996F
:1049800000F072F8394620460B9A00F0E2F8002851
:1049900002D0012005B0F0BD012E03D1E8B221689C
:1049A000886211E0FF20000228400012216888621E
:1049B000394620460B9A00F0CCF8002801D001209F
:1049C000E8E7E8B2216888620B983B460022402164
:1049D0000090204600F064F8002801D00120D9E7BB
:1049E0000020D7E700200080FFB581B004461546BF
:1049F0001E460A9F1B48F2B2C3020090204602994D
:104A000000F032F8394620460B9A00F0A2F8002850
:104A100002D0012005B0F0BD012E03D1E8B221681B
:104A2000886211E0FF20000228400012216888629D
:104A3000394620460B9A00F08CF8002801D001205E
:104A4000E8E7E8B2216888620B983B4600228021A3
:104A50000090204600F024F8002801D00120D9E77A
:104A60000020D7E700200080F0B504686568059C49
:104A7000640D0126B6023440084E26432C46B4434A
:104A80008D05AD0D1604FF273F043E4035431D4301
:104A9000059E35432C4305686C60F0BDFF63FF0342
:104AA000F8B504460E4617461D4619E0681C002856
:104AB00016D0FDF79DFA0699401AA84201D8002D9C
:104AC0000ED1606C20210843606441200155002113
:104AD0004220015500BF4020015500BF0120F8BD14
:104AE000206880693040B04201D1012000E0002000
:104AF000B842DBD00020F2E770B504460D461646FA
:104B00001EE0324629462046FFF7DEFE002801D08F
:104B1000012070BDFDF76CFA801BA84201D8002D62
:104B20000ED1606C202108436064412001550021B2
:104B30004220015500BF4020015500BF0120E8E799
:104B4000206880692021084040090028D9D0002031
:104B5000DFE770B504460D46164621E03246294689
:104B60002046FFF7B1FE002801D0012070BD681C6F
:104B7000002815D0FDF73CFA801BA84201D8002D73
:104B80000ED1606C20210843606441200155002152
:104B90004220015500BF4020015500BF0120E5E73C
:104BA000206880690221084040080028D6D00020F3
:104BB000DCE70000F0B585B00646304600F07EFD2B
:104BC00001F09EFC01F084FA3220FDF794F8FE48D3
:104BD000FE490268C81FF93801F06EFB01287DD13B
:104BE000FB48C079411DFB4BFB4AF948C01CFCF750
:104BF00069F9F7488078AA2871D1F548C078B042A1
:104C0000FAD1F34840790328F6D1F1488079012898
:104C1000F2D1EF48C0790728EED1ED48C07BEE49CC
:104C200009788842E8D1EA48007CEA490978884254
:104C3000E2D1E748407C5528DED1E548007AE749D3
:104C4000C870E348407A4870E148807A8870E0484C
:104C5000C07AE3490870DE48007B4870DC48407B3E
:104C60008870DE4800F0FAFFD948807B01280FD118
:104C7000DC4880880121490288434018D94988804E
:104C8000084680888005C10FD7A003F0C9F806E068
:104C9000D4488088012149028843D2498880D1487C
:104CA0000079C006C00F00284BD0D249C869002146
:104CB000FBF7AAFD45D2D0480068FBF743FD044648
:104CC0000022CE4BFBF754FB03910290C949C869FF
:104CD000FBF738FD01910090039B01E0A2E148E160
:104CE000029AFBF743FD2CD8C5480078401CC44904
:104CF0000870084600780C2826DB00200870BE48A3
:104D00000068FBF71FFD0022BC4B03910290FBF7EC
:104D10002FFB0446FBF752FDB74908603F20000611
:104D2000B8490860B4480068FBF70CFD044600224F
:104D3000B54BFBF72FFD07D88120C005AE490860B1
:104D400002E00020AE490870A6480079C006C00FF6
:104D500000284CD0A749C8690021FBF74BFD46D27B
:104D6000A84800680121C90748400746FBF7EAFC4C
:104D700004460022A14BFBF79FFB039102909D4943
:104D8000C869FBF7DFFC01910090039B029AFBF7D7
:104D900001FD2CD89D480078401C9C4908700846AD
:104DA00000780C2826DB0020087096480068FBF786
:104DB000C9FC0022914B03910290FBF7D9FA0446FB
:104DC000FBF7FCFC8F4908603F2000068A49086019
:104DD0008C480068FBF7B6FC044600228A4BFBF7C0
:104DE000D9FC07D88120C0058349086002E0002073
:104DF000864908707B480079C006C00F002848D05B
:104E00007C4988690021FBF7FFFC42D2804800689A
:104E1000FBF798FC04460022784BFBF7A9FA0391B4
:104E2000029074498869FBF78DFC01910090039B07
:104E3000029AFBF79BFC2CD876480078401C7549F9
:104E40000870084600780C2826DB0020087070489F
:104E50000068FBF777FC0022684B03910290FBF798
:104E600087FA0446FBF7AAFC694908603F20000660
:104E70006949086066480068FBF764FC0446002244
:104E8000614BFBF787FC07D88120C00560490860AB
:104E900002E000205F49087052480079C006C00F48
:104EA00000284CD0534988690021FBF7A3FC46D267
:104EB000594800680121C90748400746FBF742FCF2
:104EC000044600224D4BFBF7F7FA03910290494943
:104ED0008869FBF737FC01910090039B029AFBF76E
:104EE00059FC2CD84D480078401C4C4908700846A5
:104EF00000780C2826DB0020087047480068FBF784
:104F000021FC044600223D4BFBF732FA039102904C
:104F1000FBF754FC404908603F2000063C4908600C
:104F20003D480068FBF70EFC04460022364BFBF7B9
:104F300031FC07D88120C0053749086002E0002015
:104F4000364908702748808802218843801C2549FB
:104F5000888000203249087022488088400840003C
:104F60002049888008468088042188431D4988801C
:104F700082E01C488088022188431A49888028489A
:104F80000078401C2649087008460078032873DB27
:104F9000002008701348807908218843083011499F
:104FA00088710846808840084000888008468088CC
:104FB00002218843801C0B49888008468088042190
:104FC00088430849888057E0B8000020E2060020A6
:104FD000E00500200100002000000020C6000020A5
:104FE000000E002054000020464C41473D2025641F
:104FF0000A0D0000A8070020140000200000E03F78
:105000003C00002018000020000010403D0000205F
:105010001C0000203E000020200000203F00002057
:105020003A0000201548808802218843134988806F
:1050300013480078401C124908700846007803287D
:105040001ADB002008700D48807908218843083059
:105050000A498871084680884008400088800846D0
:10506000808802218843801C044988800846808803
:10507000042188430149888005B0F0BD5400002018
:105080003A00002010B51348FEF7C0F801F01EFCEE
:1050900011484068C007C00F01214840484000281F
:1050A00005D00D480068042108430B4908600A48F0
:1050B0004068022108404008002805D006480068E2
:1050C0000821084304490860FF200130FDF7BAFABF
:1050D00010BD0000DC0D0020007000403EB504460D
:1050E0000D46684600F00AF80A222146684601F09B
:1050F0002BFB284600F03AF900203EBDF0B589B000
:10510000044607AB06223B21682001F0EDFA684611
:10511000007F01026846407F014309B268468182F0
:10512000807F01026846C07F014309B26846C182A0
:1051300008A80078010208A84078014309B268462F
:10514000018304A800F012F957480499FBF752FBB9
:105150000DD856480499FBF757FB08D854490498D2
:10516000FBF732F80546FBF7BBFAC7B20CE04E4836
:105170000499FBF749FB01D2002705E04B4804994D
:10518000FBF738FB00D24F2769461420085EFBF777
:1051900093FA0022474B01910090FBF79BF90546DB
:1051A000454A464BFBF796F903910290FBF706FB45
:1051B000206069461620085EFBF77EFA054600224D
:1051C0003C4BFBF787F93C4A3C4B01910090FBF7C5
:1051D00081F903910290FBF7F1FA606069461820AB
:1051E000085EFBF769FA05460022324BFBF772F9BD
:1051F000314A324B01910090FBF76CF90391029018
:10520000FBF7DCFAA060BA002D4B99582068FBF739
:105210002CF82060BA002B4B99586068FBF725F8F2
:105220006060BA00284B9958A068FBF71EF8A06090
:105230002068FBF787FA0546244A254BFBF74AF915
:10524000244A254B01910090FBF792F803910290BC
:10525000FBF7B4FA20606068FBF774FA05461F4A52
:105260001F4BFBF737F91F4A1F4B01910090FBF7CB
:105270007FF803910290FBF7A1FA6060A068FBF74A
:1052800061FA0546194A1A4BFBF724F9194A1A4BD9
:1052900001910090FBF76CF803910290FBF78EFAF6
:1052A000A06009B0F0BD00000000F0C10000444261
:1052B0000000F0410000103F9A9999999999234074
:1052C000CC0000200C0200204C030020EAD6C6547B
:1052D00017D0EF3F4DC9C76EF007E1BFFC805B1FE1
:1052E000151EF03F7681CE80ED0BC0BFC709F4EBF1
:1052F0000C91EF3F12B65884CB49E73F70B50024BC
:10530000002500BF09E0002501E0681C85B27D2072
:10531000C0008542F9DB601C84B27D20C00084425D
:10532000F1DB00216B2000F04BF80721192000F081
:1053300047F806211A2000F043F801211C2000F054
:105340003FF818211B2000F03BF801211F2000F03E
:1053500037F80121202000F033F80021372000F039
:105360002FF85021382000F02BF870BDF0B585B033
:10537000044604AB02224121682001F0B5F96946D8
:10538000087C0002497C084307B23846FBF794F9D1
:1053900005460022074BFBF705F9074A074B019129
:1053A0000090FAF7E5FF03910290FBF707FA2060FF
:1053B00005B0F0BD00407540A4703D0AD74342409F
:1053C00013B584B0044600BF05204003012105AA9F
:1053D0000B460092019102902246D0210348FCF72F
:1053E000BDFF0028F0D106B010BD0000EC07002082
:1053F00010B51D481D49086000211C48C1630120EB
:1054000080071A494860002118488160072181639C
:10541000012101610021C160001D01774177001F5A
:105420008162FF21C23141620021243001720421D6
:10543000243841610021016381614163C161002021
:105440000A4948650846FCF7DBF80948094908603D
:10545000C01348600548FCF747F80748054908604D
:105460000248FCF741F810BD00240140F80B002071
:1054700004000008880000200000024400B587B046
:10548000142102A8FAF795FE00BF2F48C06A012137
:1054900008432D49C8620846C06AC007C00F019082
:1054A00000BF00BF00BF0846C06A0221084326496A
:1054B000C8620846C06A02210840019000BF00BFD0
:1054C00000BF2148C06A042108431F49C86208463A
:1054D000C06A04210840019000BF00BF082002906C
:1054E0000120039000200490059002A905200007E8
:1054F000FCF76EFC10200290012003900020049025
:10550000059002A91148FCF763FC002210210F4806
:10551000FCF767FD0120C0030290012003900020EA
:105520000490059002A905200007FCF751FC01201A
:1055300000030290012003900020049002A9044877
:10554000FCF746FC07B000BD00100240000400500C
:105550000008005010B50E480E4908600E4848601B
:105560000A210C4881600121C160002101610A21EA
:10557000416100218161C1610162FCF7AFFD002141
:105580000448FCF73BFD00210248FCF76EFD10BD0E
:1055900000580040EC070020380F300010B50848D4
:1055A00008490860002048607F2106488160FF218B
:1055B000C160002101618161C161FDF713FF10BD70
:1055C00000280040DC0D002010B50E480E49086090
:1055D000FF200530486000210B488160C1600161F7
:1055E00041610121890481610021C161016241623F
:1055F00081620721C1620021403041744038FEF7CA
:10560000DCF810BD00300140540C002010B50F48EC
:105610000F490860E1204002486000210C48816089
:10562000C16001610C21416100218161C1610162A0
:1056300000200749486248670846FEF759FE0028DF
:1056400002D004A002F0ECFB10BD000000380140C5
:10565000100A0020B4AEBFDA31B3F5CABCBBAFCA82
:10566000A7B0DC0010B50F480F490860E1204002E8
:10567000486000210C488160C16001610C214161DA
:1056800000218161C16101620020074948624867C9
:105690000846FEF72DFE002802D004A002F0C0FB51
:1056A00010BD0000004C0040900A0020B4AEBFDAEC
:1056B00034B3F5CABCBBAFCAA7B0DC0010B5C2B0EA
:1056C0000446FF21013102A8FAF773FD072C33D0FD
:1056D00006DC002C09D0012C76D0022C75D1F3E029
:1056E000082C73D00E2CF9D13BE1AA216846017237
:1056F0000021417201218172C172032101730021D5
:105700004173407B411DB14BB14A02A80130FBF708
:10571000D9FBAF48017868468173AC480178684688
:10572000C1735521017400F0EBFE00F0EAFC092181
:1057300002A800F0BBFE46E1AA21684601720721DB
:10574000417201218172C1720321017311214173E0
:10575000A048C069019001A8C17868468173817929
:10576000C17341790174017941749A48806901904B
:1057700001A8C178684681748179C1744179017545
:10578000017941759348006A019001A8C178684683
:10579000817541790176017941768E48406A0190A0
:1057A00001A8C178684681768179C176417901770F
:1057B000017941778748807D6946887786480088E7
:1057C000012804D1C87705E053E0FBE020E0002089
:1057D0006946C8776846407B411D7C4B7C4A02A8DD
:1057E0000130FBF76FFB7A48017808A80170774811
:1057F000017808A841705521817000F082FC1B21BE
:1058000002A800F053FE1B2102A802F061F9DAE0C1
:10581000AA216846017208214172012181726D48F6
:10582000817A6846C1726B48417A684601730121EA
:1058300041736A488078011268468173407B411D3C
:10584000624B634A02A80130FBF73CFB60480178D9
:105850006846C1735D4801786846017455214174FA
:1058600000F04EFE00F04DFC0A2102A800F01EFEE2
:10587000A9E0AA216846017201214172817255484E
:10588000817A6846C1725348417A684601730021A3
:105890004173407B411D4D4B4D4A02A80130FBF73F
:1058A00011FB4B4801786846817348480178684687
:1058B000C1735521017400F023FE00F022FC092180
:1058C00002A800F0F3FD00BF4549464800F088F902
:1058D000AA216846017202214172012181723D486C
:1058E000817A6846C1723B48417A68460173072154
:1058F00041733C48C178684681733A4841786846AC
:10590000C173384881786846017435480178684623
:1059100041743348417868468174314881786846DB
:10592000C1742C48807D011268460175407B411D81
:10593000264B274A02A80130FBF7C4FA2448017815
:105940006846417521480178684681755521C175C1
:1059500000F0D6FD00F0D5FB102102A800F0A6FD56
:1059600000BF1F491F4800F03BF9AA216846017299
:105970000E214172012181721648817A6846C172F6
:105980001448417A68460173012141738173407B59
:10599000411D0E4B0E4A02A80130FBF793FA0C484A
:1059A00001786846C1730948017868460174552139
:1059B000417400F0A5FD00F0A4FB0A2102A800F04C
:1059C00075FD00BF00BF00BF42B010BD0100002048
:1059D00000000020A807002006000020540000203E
:1059E000000E0020C60000207047000010B50028FF
:1059F00019DA1A4A03071B0F083B9B089B00D25871
:105A00008307DC0EFF23A3409A438B071B0E8407FA
:105A1000E40EA3401A43114B0407240F083CA408CA
:105A2000A4001A5118E00E4A03231B02D21883085F
:105A30009B00D2588307DC0EFF23A3409A438B07B9
:105A40001B0E8407E40EA3401A43054B03242402D3
:105A50001B198408A4001A5110BD00001CED00E0C1
:105A600000E100E070470000F8B53048808880050C
:105A7000C00F002859D02E480078401C2C490870CF
:105A80002C4AD16B506DFAF79FFB2A4948650A46AC
:105A9000116C906DFAF798FB264988650A46516C9F
:105AA000D06DFAF791FB2349C865214800780A2890
:105AB0003BDB00201E4908701C48808801214902F8
:105AC00088431A4988801B49486DFAF73BFE064611
:105AD000194A1A4BFAF7FEFC0446FAF76FFE15490D
