:020000040800F2
:10000000A00F0020D5000008D9430008693D000872
:1000100000000000000000000000000000000000E0
:1000200000000000000000000000000087490008F8
:10003000000000000000000055440008A14F000827
:10004000E7000008E7000008D9440008E7000008BE
:10005000E70000089D0C0008A90C0008C90C000866
:1000600000000000E7000008190B0008E700000886
:10007000E7000008E700000851590008395100085E
:1000800049510008E7000008E700000800000000F0
:10009000E7000008E7000008E7000008E7000008A4
:1000A000E7000008E7000008E700000841590008E1
:1000B000E7000008E7000008000000000000000062
:1000C0000348854600F058FC00480047FD6C0008D6
:1000D000A00F00200448804704480047FEE7FEE7E1
:1000E000FEE7FEE7FEE7FEE7D1500008C10000088A
:1000F00030B50B46014600202022012409E00D46C0
:10010000D5409D4205D31D469540491B2546954047
:1001100040191546521E002DF1DC30BD70B500248B
:100120002546002801DA01244042002901DA012590
:100130004942FFF7DDFFAC4200D04042002C00D026
:10014000494270BDF0B51FB40646002082B0054696
:100150004024019100901BE0019922460F46304651
:1001600000F026FB049A059B801A994110D3104693
:100170001946224600F00CFB361A8F4101972246A1
:1001800001200021009F00F003FB38184D41009032
:100190002046641E0028DFDC019B00982946324679
:1001A00007B0F0BDD2B201E00270401C491EFBD284
:1001B00070470022F6E710B513460A460446194672
:1001C000FFF7F0FF204610BDF8B502464A40D40FB5
:1001D00042004B0052085B089A4202D2024608468F
:1001E00011464A0023D0C30D4A00DDB2120EAD1AEB
:1001F000202D35DA49020126490AF6058A19002C14
:1002000000D0524220214F1B1146B9402A411018FC
:10021000C20D9A4221D0002C17D0012D08DCDA053E
:10022000801AD20F8019D207DBB200F0EDFAF8BDC8
:10023000DA05801A012340001B06C01880185A42B4
:100240008018CA0F1043490007E04908C20711434C
:10025000DA05801A80194008801800F0CDFAF8BD40
:1002600061000122511A001BF7E70122D207514019
:10027000AAE70122D2075040A6E7024670B54A40DD
:10028000D30FDB0740002DD04A002AD0010E140EF8
:10029000000212020919400A520A8418E5010446B4
:1002A0005443000A120A2E045043A4194219200C88
:1002B000C543AA18120C0125AD03521C5219120491
:1002C0007F39240400D0521C104301D44000491E41
:1002D000C2B20C06C0092018401C4008802A02D077
:1002E00003E0002070BD40084000002900DA002033
:1002F000184370BD70B502464A40D50F40004A0011
:10030000ED0740085208002814D0002A12D0C40D6E
:10031000D30D41020120C0055202490A520AE41AD3
:10032000091812187D34914201D3641C00E0490081
:10033000002C01DA002070BD0023914201D3891AFC
:100340000343400849000028F7D100290AD0914210
:1003500002D10121C90705E0914201D2012101E04A
:100360000121C943E005C018401900F045FA70BDED
:10037000F0B507460846584087B0C00F04904800C3
:100380000E46590040084908BC1A884105D2384633
:1003900031461E4617460B46024658004008104399
:1003A0004CD0300D039040055900400D490D05908B
:1003B000401A0290402872DA18030121000B090547
:1003C0000843019004980092002805D001995242F8
:1003D0000020884100920190029840210A1A019958
:1003E000009800F0D5F905460C466B4607CB00F0A7
:1003F000F0F9C0197141039A0E0D0023D71756402A
:100400001A467A40164344D0049A002A2DD0029A04
:10041000012A039A15DC1205C01A914101263605FE
:10042000001C7141D20F059ED207009301920296E3
:100430002A46234600F02EFA07B0F0BD3846314672
:10044000FAE71605224A0F46B218C01AB741012131
:100450000905001C4F4100187F41114618187941C9
:10046000E20F10436D19644113E0E2076D08154374
:100470006408C2071443039A01261205C01A914169
:100480003605001C7141CE07400830434908C018AA
:1004900051412A46234600F0F0F9CDE7FFE70498E2
:1004A00001224000C117121A00238B4104983146E3
:1004B000C417381AA141EEE730B40124E4076340C1
:1004C00030BC55E730B40124E407614030BC4FE74D
:1004D0000000E0FFF0B51FB488B00B990998002424
:1004E00048400999C00F490049080991C0070B9974
:1004F0000090490049080B9109990898A6460843BD
:100500001CD00B990A98084318D009980124400080
:10051000420D4800410D099824050003000B2043BB
:1005200009900B980003000B20430B9050181C49B6
:100530004018002201901446104605E000200146B4
:100540000DB0F0BD032801DA034600E003239C460A
:10055000C11A0AAE0AE05F0008ADED5B4F00F75B21
:100560007D430027AA187C41491C5B1E6145F2DDD2
:10057000410004AB5A522104120C0A43240C401CC3
:100580000828DFDB019802900099704601910090E5
:10059000059B049A0799069800F07CF9D0E70000C3
:1005A0000DFCFFFFF0B50C465C4085B0E40FE4079E
:1005B00003944C00002664085900944649080246FA
:1005C0000296224321D062460A431ED06200570D94
:1005D0004A000E032303550D012402462C4924052D
:1005E000781B1B0B360B40182343264361460090B3
:1005F0001C46501AB44103D30098401C009002E0FE
:10060000921800985B41002803DA0020014605B0EB
:10061000F0BD0020012109050746864611E0644629
:100620001D46141BB54106D36546521BB3417446A3
:1006300007430C43A646CD074008490828439218B3
:100640005B4105460D43EAD11046184313D060467E
:10065000194650407140084306D06046101AB34115
:1006600006D20122002306E000220123DB0702E07C
:100670000122D2435310009874460105381C614191
:10068000029C039D0019694100F0F7F8BFE70000E4
:10069000FD030000C217C10F504010B54018CA0733
:1006A0009623002100F0B0F810BD10B5002296236B
:1006B000114600F0A9F810BD410040020122400A95
:1006C000D205090E80187F2901DA0020704796298B
:1006D00003DC9622511AC84070479639884070470B
:1006E000C20FD207400040080BD0C10D0723DB0129
:1006F000C91840020905400A1143C20840071143C6
:10070000704700200146704710B5002904DB012422
:10071000E40740428C412146002B04DB1C460123A8
:10072000DB075242A3418B4200D1824210BD000040
:1007300010B5002904DB0124E40740428C41214626
:10074000002B04DB1C460123DB075242A3419942E4
:1007500000D1904210BD0000CB0FDB07490010B55F
:10076000490802460A4307D00A0D07240903E40199
:10077000090B121B002A01DC002010BDC900440F28
:100780000C43C100E018D205801800F035F810BD08
:1007900010B5202A04DB0146203A9140002010BD0C
:1007A000914020239C1A0346E3401943904010BD1A
:1007B00010B5202A04DB0846203AD040002110BDA5
:1007C0000B46D340D0402024A21A9140084319463A
:1007D00010BD10B5202A06DBCB170846203A104181
:1007E000C1170B4306E00B461341D0402024A21A48
:1007F00091400843194610BD002904DA401C490005
:1008000001D140084000704770B40024050C05D1A8
:100810001024000402D1002921D01124050E01D199
:1008200000020834050F01D10001241D850F01D1FC
:100830008000A41C002801DB4000641C002908D0B3
:1008400020252E1B0D46F540A14000D00121294353
:10085000084301061B1B000ADB1D02D5002070BCEB
:100860007047DB05181880180029F8DA401C490089
:10087000F5D170BC40084000704710B5002B08DA75
:100880000024401C614192185B411A4301D1400889
:10089000400010BDF0B51FB482B005460C0003D077
:1008A000084605F069FD02E005F066FD20300246CD
:1008B000009021462846FFF76BFF049B059A0446EB
:1008C0000F4618431143084314D0184610431BD059
:1008D000009840210A1A18460599FFF769FF054656
:1008E0000E46009A05990498FFF752FF084305D079
:1008F000012004E02046394607B0F0BD0020C117B2
:1009000005430E432C43374300990E986305401A64
:100910007905E40A00220C43FD0A0A3002D50020C2
:100920000146E9E70105101969410C9C0D9D00196C
:100930006941FFF7A2FFDFE74A0009030123090B22
:100940001B0519430A4B10B5520D9A4202DA0020DA
:10095000014610BD064B34339A4203DC9A1AFFF766
:1009600027FF10BD034BD218FFF712FF10BD000088
:10097000FF030000CDFBFFFF064C0125064E05E0FE
:10098000E36807CC2B430C3C98471034B442F7D3B0
:10099000FFF79AFB547200087472000838B50446D9
:1009A000074908480068FFF7A3FB6043009002E096
:1009B0000098401E009000980028F9D138BD000032
:1009C00040420F004000002010B503F09FFB0021C3
:1009D000014800F0B7F910BD040800200123DB0432
:1009E00002681A409A4204D1034B02681A430A6013
:1009F00001E002680A6070470000F0FF00B587B0B0
:100A000000BF1748C06A012108431549C86208465B
:100A1000C06AC007C00F019000BF00BF00BF0846FA
:100A2000C06A022108430E49C8620846C06A022112
:100A30000840019000BF00BF1020029001200390E9
:100A400000200490059002A90520000700F06AFD2F
:100A5000012210210520000700F06DFE07B000BD47
:100A600000100240F8B504460D4616466006010E19
:100A7000009168460078012108430090002210216F
:100A80000520000700F057FE0023DB4301226946E2
:100A9000084802F071FA0023DB4332462946054834
:100AA00002F0A4F9012210210520000700F043FE06
:100AB0003846F8BD600800201CB504466006010EEB
:100AC0000091684601780120014300910022102125
:100AD0000520000700F02FFE0023DB4301226946BA
:100AE000094802F049FA0023DB43012201A9064824
:100AF00002F07CF9012210210520000700F01BFE06
:100B0000684600791CBD00006008002010B5FFF7A2
:100B100075FF03F0F3FD10BD10B5034800F080FB36
:100B2000024800F07DFB10BDC40400200C0500202D
:100B300030B51C25446C2C400125A540046C656033
:100B4000046863608468102C04D10468A26004689F
:100B5000E16003E00468A1600468E26030BD000069
:100B600008B50020434908604B2000014249086055
:100B70007D204001414908604148424908601720F2
:100B8000414908703B204870052088703F488088A4
:100B9000400840003D4988800020088001203C49F1
:100BA00088823A4880880121C90288433749888071
:100BB00008468088012109038843344988803548E4
:100BC000007D334988723348807D48723148408DBA
:100BD00048853048808B08852E48808F88812D4835
:100BE0004030007808742B4840308088488229487B
:100BF0004030807848742748C18B6846418025483A
:100C0000018C684601802449009808662148418C7F
:100C1000684641801F48818C684601801E490098C3
:100C200048661C48C18C684641801A48018D684658
:100C3000018019490098886616480079144988701F
:100C4000144881791248C1701248017A1048017124
:100C50001048817A0E4841710E48017B0C48817121
:100C60000C48817B0A48C1710A48017C084801721E
:100C700008BD0000800000209000002088000020B7
:100C8000CDCCCC3D740000207A0000202C00002048
:100C9000B40300201C0B00206C0A002010B50220B9
:100CA00000F030FC10BD000010B504F089FB03A07B
:100CB00005F052FB082000F025FC10BD656E746540
:100CC00072203335350D0A0010B50120400200F0C6
:100CD00019FC10BD7047000010B500F025FF03F0AF
:100CE00099F903F059FA072000F05EFF0022102165
:100CF0000F4800F020FD002208210520000700F029
:100D00001AFD00220121C9030520000700F013FD90
:100D1000FFF75AFE04F054FB06F038F803F026F80B
:100D200003F0A4F903F0CCFE02A005F015FB10BD02
:100D300000040050204745542057414B4520555052
:100D400020000000F8B5044600250026002700BF5B
:100D50005020005D012801D10220F8BD0121502062
:100D6000015500BF206880688007800F012806D1E8
:100D7000206800680840002801D0012000E0002021
:100D8000002841D1606DFF210131884302210843D1
:100D900060652068C0688707BF0F2068C06880084A
:100DA00080002168C860206880680121C907084365
:100DB0002168886000F0C6FC064611E000F0C2FC25
:100DC000801B0A280CD9606D02218843102108433A
:100DD000606500BF00215020015500BF0120BCE725
:100DE00020688068C00FC0070121C9078842E5D08C
:100DF0002068C06838432168C860606D022188435C
:100E000001210843606504E0606D202108436065AE
:100E1000012500BF00215020015500BF28469CE756
:100E200070B504460D4600BF5020005D012801D179
:100E3000022070BD01215020015500BF206880684C
:100E400004210840800800280AD0606D2021084352
:100E5000606500BF00215020015500BF0120E8E778
:100E60002D496868884229D02068806A296849032A
:100E7000490B08432168886228684003400B2749D2
:100E8000084001218904884208D125488068490129
:100E90000843234988600A20FFF780FD2868400343
:100EA000400B204908400121490488422CD11C48AC
:100EB0008068490108431A49886025E02068806AF3
:100EC00029684903490B88432168886228684003E0
:100ED000400B1249084001218904884205D110487D
:100EE0008068490188430E49886028684003400BA8
:100EF0000C49084001214904884205D1084880680E
:100F0000490188430649886000BF002150200155EF
:100F100000BF00208DE70000011000000000044821
:100F2000002701400000024410B50446002C01D106
:100F3000012010BD606D002806D1A0650021502061
:100F40000155204600F00EF9606D10210840102870
:100F500006D02068806804210840800800280AD054
:100F6000606D10210843606500BF002150200155CD
:100F700000BF0120DDE7606DFF21013188430221C0
:100F800008436065206880688007800F012807D1CA
:100F900020680068C007C00F002801D0012000E0D1
:100FA000002000283AD100BF0321890760688842E9
:100FB00007D049426068884203D04900606888428F
:100FC0000CD12068006980008008216808612068D1
:100FD0000069616808432168086112E020680069BF
:100FE00080008008216808615C4880680F218904BE
:100FF00088435A49886008468068616808435749B1
:10100000886000BF2068C068182188432168C860D4
:101010002068C068A16808432168C8604F4880689C
:101020000121490688434D49886008468068A18EA1
:1010300049060843494988602068806801210907FA
:101040000840002804D1206880680843216888602F
:101050002068C068424908402168C8602169E0688A
:10106000022901D1042100E0002108432021095D6B
:10107000490308432C21095D49000843216B0843BB
:10108000A16989030843E169C90308432168C96864
:1010900008432168C860FF21C231606A884207D0D6
:1010A000A16A606A08432168C96808432168C8606A
:1010B0002120005D012813D12020005D002807D1E8
:1010C0002068C0680121090408432168C86007E05E
:1010D000606D202108436065A06D01210843A06573
:1010E000E06B012817D120680069FF21890088433F
:1010F00021680861216C606C0843A16C0843216879
:1011000009690843216808612068006901210843D2
:10111000216808610BE020680069C007C00F002843
:1011200005D02068006940084000216808612068F7
:101130004069C008C0002168486120684069A16B0F
:101140000843216848610020A065606D0221884342
:101150000121084360650020EBE600000027014004
:101160001902FEFF10B586B00446142101A8FFF74E
:1011700020F81249206888421ED11148406B491559
:1011800008430F49486300BF0846C06A012108436D
:101190000B49C8620846C06AC007C00F009000BF74
:1011A00000BF04200190032002900020039001A9B9
:1011B0000520000700F0B6F906B010BD002401407C
:1011C0000010024070B5044600252520005D02286D
:1011D00003D00420E063012520E0206800680E2190
:1011E0008843216808602068006840084000216842
:1011F00008601C21606C084001218140206C416026
:1012000001212520015500BF00212420015500BFE8
:10121000A06B002802D02046A16B8847284670BDED
:1012200070B50446206C0568206806681C20616C57
:10123000014004208840284000281DD00420304070
:10124000002819D02068006820210840002805D116
:101250002068006804218843216808601C21606CB4
:10126000084004218140206C4160206B00285AD046
:101270002046216B884756E01C20616C014002200B
:1012800088402840002825D002203040002821D066
:101290002068006820210840002808D120680068E4
:1012A0000A218843216808600121252001551C215D
:1012B000606C084002218140206C416000BF002129
:1012C0002420015500BFE06A00282CD02046E16AA6
:1012D000884728E01C20616C014008208840284095
:1012E000002820D00820304000281CD0206800684A
:1012F0000E218843216808601C21606C0840012190
:101300008140206C41600120E063012125200155CE
:1013100000BF00212420015500BF606B002802D0CF
:101320002046616B884770BD70B50446002C01D122
:10133000012070BD244A2168881A1421FEF7D8FEC6
:10134000800060642048083820640221252001556F
:10135000206805681D480540E168A06808432169C8
:10136000084361690843A1690843E1690843216AA8
:10137000084305432068056001218903A06888426D
:1013800017D011487830806A1C22616C11400F22FE
:101390008A4090430C49783188621C22616C11406C
:1013A0006068884008497831896A0843064978317D
:1013B00088620020E06301212520015500212420BE
:1013C00001550020B5E70000080002400F80FFFF34
:1013D000F8B504460D4616461F460020009000BF93
:1013E0002420005D012801D10220F8BD0121242024
:1013F000015500BF2520005D01282DD102212520A7
:1014000001550020E0632068006840084000216822
:1014100008603B46324629462046FFF789FB206B91
:10142000002806D0206800680E2108432168086063
:101430000BE0206800680421884321680860206868
:1014400000680A21084321680860206800680121BB
:1014500008432168086006E000BF002124200155F0
:1014600000BF022000900098BFE7000010B50446BE
:1014700001204002844202D1012015490870082C45
:1014800015D1012013490870002011490870124934
:101490000870124801F04AFCFFF738FB10A004F076
:1014A0005BFF042003F068F9042003F065F9022CC7
:1014B0000CD1012211460D4800F03DF90122042112
:1014C0000A4800F038F90AA004F046FF10BD0000F9
:1014D000100000201B0000203700002060080020C2
:1014E000656E746572203335350D0A0000040050B6
:1014F000456E74657220344720496E74657272754A
:101500007074000010B5044605484069204000286A
:1015100004D0034844612046FFF7A8FF10BD000037
:101520000004014070B50346002200240020DFE0E3
:10153000012696400D6835402C46002C77D04D682A
:10154000022D02D04D68122D15D1D508AE001D46D2
:101550002035A8595507EE0E0F25B5400646AE4377
:1015600030465607F60E0D69B5402843D508AD0044
:101570001E46203670514D68012D08D04D68022D51
:1015800005D04D68112D02D04D68122D18D19868E4
:1015900056000325B5400646AE4330465600CD689A
:1015A000B540284398605868012595400646AE43EB
:1015B000304610264D6835402D0995402843586027
:1015C000186856000325B5400646AE4330460D79EF
:1015D000AD07AD0F5600B54028431860D8685600D7
:1015E0000325B5400646AE43304656008D68B540EB
:1015F0002843D860012636074D683540B54276D17C
:101600003E4D6D6B012635433C4E75633C4D96084F
:10161000B600A85995072E0F0F25B5400646AE43D4
:10162000304605252D07AB4202D100251AE05EE0C9
:10163000344DAB4201D1012514E0334DAB4201D111
:1016400002250FE0314DAB4201D103250AE0304DB8
:10165000AB4201D1042505E02E4DAB4201D1052559
:1016600000E006259607360FB5402843244D96081E
:10167000B600A851284D28680546A54328460126EE
:1016800036044D683540B54202D10546254328460B
:10169000214D286068680546A54328460126760442
:1016A0004D683540B54202D10546254328461A4DBE
:1016B0006860A8680546A5432846012636054D689A
:1016C0003540B54202D1054625432846124DA86053
:1016D000E8680546A5432846012676054D6835404D
:1016E000B54202D10546254328460B4DE860521C01
:1016F0000D68D540002D00D01AE770BD00100240E3
:10170000080001400004005000080050000C005088
:1017100000100050001C00500004014002461369F4
:101720000B40002B01D0012000E0002070474269EF
:101730004A4042617047002A01D0816100E0816225
:101740007047000001480068704700003C0000201E
:1017500002464120805C20282FD100BF4020805CC1
:10176000012801D10220704701234020835400BF8B
:101770002423412083541068006840084000136807
:1017800018601068006801231B03984313681860F1
:101790001068006808431368186010680068012327
:1017A00018431368186020234120835400BF00238E
:1017B0004020835400BF0020D5E70220D3E710B5B6
:1017C00002460B464120805C20282ED100BF4020DD
:1017D000805C012801D1022010BD012440208454E6
:1017E00000BF242441208454106800684008400051
:1017F00014682060106801680F2424020846A04382
:101800000146180201431068016010680068012455
:1018100020431468206020244120845400BF002409
:101820004020845400BF0020D6E70220D4E7000007
:1018300010B50446002C01D1012010BD4120005DEF
:10184000002805D1002140200155204600F02CF948
:10185000242141200155206800684008400021688B
:1018600008600F21090660688843216808612068C4
:1018700080680121C903884321688860E0680128E5
:1018800006D10121C903A06808432168886005E0EA
:1018900021218902A068084321688860E068022845
:1018A00002D18002216848602068406814490843DA
:1018B000216848602068C0680121C9038843216805
:1018C000C860616920690843A16909020843216869
:1018D000C860216AE06908432168086020680068E0
:1018E0000121084321680860002060642021412014
:1018F00001550020206300214220015500209CE773
:1019000000800002FFB583B004460C9F0E9E41206C
:10191000005D20287ED1002F02D00D98002805D12F
:10192000012040026064012007B0F0BD00BF4020EC
:10193000005D012801D10220F6E701214020015578
:1019400000BFFFF7FFFE054619230122D103204601
:10195000009502F0D5FA002801D00120E4E721210A
:1019600041200155402142200155002060646762FA
:101970000D9860850020606300960195204604A9BB
:101980000EC902F061FA002806D000BF00214020F5
:10199000015500BF0120C7E7608DFF280CD9FF204B
:1019A000208500200090208DC2B201231B06204616
:1019B000049902F089FA0BE0608D208500200090E8
:1019C000208DC2B201235B062046049902F07CFA06
:1019D00000BF2A463146204602F0EBFA002801D02B
:1019E0000120A1E7606A007821688862606A401C73
:1019F0006062608D401E6085208D401E2085608D58
:101A000000282BD0208D002828D1334600228021A9
:101A1000204600E043E0009502F072FA002801D071
:101A2000012081E7608DFF280CD9FF202085002050
:101A30000090208DC2B201231B062046049902F0BB
:101A400043FA0BE0608D208500200090208DC2B20B
:101A500001235B062046049902F036FA608D0028C7
:101A6000B7D12A463146204602F076FA002801D046
:101A7000012059E720202168C86120684068094991
:101A80000840216848602021412001550021422062
:101A9000015500BF4020015500BF002044E702204F
:101AA00042E7000000E800FE10B586B004461421AD
:101AB00001A8FEF77EFB15492068884223D100BFAC
:101AC0001348C06A022108431149C8620846C06A27
:101AD00002210840009000BF00BF03208002019057
:101AE000122002900120039003200490062005900C
:101AF00001A90848FFF716FD0548806B01218905FB
:101B000008430349886306B010BD00000058004038
:101B1000001002400004005002480068401C0149C7
:101B2000086070473C00002010B500240848006899
:101B30004021084306490860002000F00BF8002807
:101B400001D0012401E000F01FF8204610BD000084
:101B50000020024070B5044600257D21C9000948D7
:101B60000068FEF7C5FA064601F016FC002801D011
:101B7000012504E000222146501E00F02DF82846E1
:101B800070BD0000400000200648406B0121084362
:101B9000044948630846806B090408430149886387
:101BA000704700000010024000BFC206D20E0121A3
:101BB0009140024A116000BF7047000080E100E0E0
:101BC00000BFC206D20E01219140024A116000BF3F
:101BD0007047000000E100E070B504460D4616466F
:101BE0002946204602F0FAFB70BD00000249496810
:101BF0008143014A5160704700700040F8B50446C7
:101C000020212068084020287CD120680840202816
:101C100000D100BF00278948806B012109070840D7
:101C2000002805D18548806B0843844988630127D3
:101C300083480068FF2101310840002816D1804800
:101C4000006808437E490860FFF77CFD064606E011
:101C5000FFF778FD801B642801D90320F8BD784880
:101C60000068FF21013108400028F1D07348056861
:101C7000032109050D4060680840A8420DD00911F4
:101C800060680840884208D16C4800680121490416
:101C90000840884201D10120E0E7684840300069EF
:101CA0000321090408400546002D3DD06068084026
:101CB000A84239D0202120680840202834D15F482C
:101CC0004030006903210904884305465B484030E1
:101CD00000690121C9040843584940310861084698
:101CE00000690121C904884354494031086108460C
:101CF0000561801528408915884215D1FFF722FD1E
:101D0000064608E039E0FFF71DFD801B4D4988427B
:101D100001D90320A2E74948403000690121490266
:101D20000840400A0028EED000BF00BF032109048C
:101D30006068084088420AD1404800680901884329
:101D4000032212056168114008433C49086000BF46
:101D50003A48403000690322120461681140084388
:101D600036494031086100BF012F05D13348806BEF
:101D7000890588433149886300BF2078C007C00FB8
:101D8000002809D02D484030C06880088000A16834
:101D900008432A494031C8600221206808400228CF
:101DA00009D126484030C0680C218843E1680843C7
:101DB00022494031C86004212068084004280AD123
:101DC0001E484030C06803218902884321690843C6
:101DD0001A494031C86008212068084008280AD103
:101DE00016484030C06803210903884361690843ED
:101DF00012494031C860FF21013120680840884203
:101E00000AD10E484030C068032109048843A16903
:101E100008430A494031C860802120680840802872
:101E20000AD106484030C068032189048843E1692B
:101E3000084302494031C86000200FE7001002400B
:101E40000070004088130000F8B504460D46002CD1
:101E500001D10120F8BD79480068C007C00FA84231
:101E60000ED2764800684008400028437349086055
:101E700008460068C007C00FA84201D00120E9E76A
:101E8000022120680840022807D16D48C068F0216F
:101E90008843A16808436A49C8602078C007C00F1A
:101EA00000284CD06068022809D1654800680121EB
:101EB00049040840400C002824D10120CAE760688A
:101EC000032809D15E480068012149060840400EF8
:101ED000002817D10120BDE76068012808D15848C3
:101EE000006804210840800800280BD10120B1E7D8
:101EF00053480068012149020840400A002801D1E6
:101F00000120A7E74E48C068800880006168084348
:101F10004B49C860FFF716FC0646606802280FD1DF
:101F200007E0FFF70FFC801B4649884201D90320D8
:101F300090E74348C0680C2108400828F1D134E0FC
:101F4000606803280FD107E0FFF7FCFB801B3D49C9
:101F5000884201D903207DE73948C0680C21084038
:101F60000C28F1D121E0606801280FD107E0FFF7CC
:101F7000E9FB801B3349884201D903206AE73048D6
:101F8000C0680C2108400428F1D10EE007E0FFF7FB
:101F9000D9FB801B2B49884201D903205AE72848E6
:101FA000C0680C2108400028F1D124480068C0070F
:101FB000C00FA8420ED921480068400840002843BD
:101FC0001E49086008460068C007C00FA84201D03B
:101FD00001203FE7042120680840042808D1184860
:101FE000C068072109028843E16808431449C860B2
:101FF000082120680840082809D11148C068072135
:10200000C90288432169C90008430D49C86000F02E
:1020100049F80B49C968F022114009090A4A515C84
:10202000C8400A4908600020FFF794FD0746002FCA
:1020300001D038460EE700200CE7000000200240E7
:102040000010024088130000646E00084000002069
:1020500001480068704700004000002000B5FFF70D
:10206000F7FF0549C968072212021140090A034A0D
:10207000515CC84000BD000000100240746E0008B2
:1020800000B5FFF7E5FF0549C9680722D2021140F4
:10209000C90A034A515CC84000BD0000001002405C
:1020A000746E0008FEB52E48C7680C203840002822
:1020B00045D0042804D008280CD00C283ED10BE0D1
:1020C0002748006810210840002801D0254C00E076
:1020D000254C41E0254C3FE00F2080043840800C27
:1020E00023490E5C032080053840800D401C019080
:1020F0001B48C068012109040840002807D01B497B
:10210000714308460199FDF7F3FF054614E01448B2
:10211000006810210840002807D012497143084682
:102120000199FDF7E5FF054606E00F4971430846B2
:102130000199FDF7DDFF05462C460DE000BF08487C
:102140004068072149030840400B00900098401C5C
:1021500001218140CC0300BF00BF2046FEBD00002E
:102160000010024000093D000024F40000127A0033
:102170007C6E0008FEB50446002C01D10120FEBD96
:10218000FA48C7680C210F40C068012109040840C3
:1021900001902078C007C00F002872D0082F04D00B
:1021A0000C2F0FD1019888420CD1F0480068012112
:1021B00049040840400C002863D06068002860D1C2
:1021C0000120DCE700BF012109046068884205D1D5
:1021D000E64800680843E549086027E0052109044E
:1021E000606888420ED1E1480068012189040843F3
:1021F000DE49086008460068012109040843DB49FC
:10220000086013E0D9480068012109048843D749D0
:10221000086008460068012109040840009000BFDA
:10222000D248006889008843D049086000BF6068D0
:10223000002813D0FFF786FA054606E0FFF782FA7A
:10224000401B642801D9032099E7C8480068012190
:1022500049040840400C0028F0D012E0FFF772FA61
:10226000054606E0FFF76EFA401B642801D90320FB
:1022700085E7BE480068012149040840400C002859
:10228000F0D102212068084002286BD1E6682020A6
:102290003040002809D0B548006820210843B349E0
:1022A00008602021304688430646042F04D00C2FB6
:1022B00033D10198002830D1AC480068042108408F
:1022C0008008002803D0002E01D1012057E7A7483D
:1022D00040681F2109028843216909020843A34974
:1022E0004860084600680921884330439F490860D8
:1022F000FFF7D8FE9D49C968F022114009099C4AA0
:10230000515CC8409B4908600020FFF723FC029005
:10231000029800283FD0029831E7002E23D093483E
:10232000006809218843304390490860FFF70AFAA2
:10233000054606E0FFF706FA401B022801D90320F4
:102340001DE78A4800680421084080080028F1D071
:10235000864840681F210902884321690902084311
:102360008249486017E081480068400840007F4982
:102370000860FFF7E7F9054606E0FFF7E3F9401BC1
:10238000022801D90320FAE67848006804210840B1
:1023900080080028F1D1102120680840102867D15A
:1023A000002F36D17148006849010840400A0028D2
:1023B00004D0A069002801D10120E0E66B48406804
:1023C000072149038843216A084368494860084651
:1023D00040680002000A217F0906084363494860FB
:1023E000206A400B401C01218140C8035F49C96835
:1023F000F022114009095E4A515CC8405D490860FD
:102400000020FFF7A7FB0290029800284BD002980B
:10241000B5E6A06900282CD054480068FF2101319E
:10242000084352490860FFF78DF9054606E0FFF7BB
:1024300089F9401B022801D90320A0E64B48006817
:10244000012149020840400A0028F0D0474840686E
:10245000072149038843216A0843444948600846E4
:1024600040680002000A217F090608433F4948608E
:1024700019E03E480068FF21013188433B4908606C
:10248000FFF760F9054606E0FFF75CF9401B0228FC
:1024900001D9032073E6354800680121490208404C
:1024A000400A0028F0D1082120680840082839D1C6
:1024B000606900281BD02D48403000690121084385
:1024C0002A4940310861FFF73DF9054606E0FFF76C
:1024D00039F9401B022801D9032050E62348403037
:1024E00000690221084040080028F0D01AE01F4887
:1024F00040300069400840001C4940310861FFF746
:1025000021F9054606E0FFF71DF9401B022801D915
:10251000032034E615484030006902210840400895
:102520000028F0D1042120680840042879D1002037
:1025300000900E48806B89060840002806D10B48A1
:10254000806B084309498863012000900A480068AD
:10255000FF210131084000281ED1074800680843C8
:1025600005490860FFF7EEF805460EE0001002404E
:10257000646E00084000002000700040FFF7E2F8A1
:10258000401B642801D90320F9E587480068FF2132
:10259000013108400028F1D000BFFF210131A068BF
:1025A000884205D18148006908438049086130E0CC
:1025B000A06800280DD17D480069FF2101318843C2
:1025C0007A49086108460069091588437749086116
:1025D0001FE005210902A06888420DD173480069F7
:1025E000012189020843714908610846006989157B
:1025F00008436E4908610CE06C480069FF21013115
:1026000088436A4908610846006909158843674993
:10261000086100BFA068002815D0FFF793F80546B1
:1026200008E031E0FFF78EF8401B6149884201D98C
:102630000320A4E55D480069012149020840400AE1
:102640000028EFD013E0FFF77DF8054607E0FFF71D
:1026500079F8401B5649884201D903208FE5534839
:102660000069012149020840400A0028EFD1009882
:10267000012808D14D484038806B01210907884363
:102680004A494039886300BF606A00284CD00C2F4B
:1026900069D0606A022848D1444840380068012166
:1026A00009068843414940390860FFF74BF8054661
:1026B00006E0FFF747F8401B022801D903205EE53A
:1026C0003A4840380068012149060840400E002879
:1026D000EFD1E16AA06A0843216B084333494039CE
:1026E000C968FD2212049143084330494039C8604B
:1026F000084600680121090608432C494039086052
:10270000FFF720F8054606E0FFF71CF8401B0228FB
:1027100001D9032033E525484038006801214906E6
:102720000840400E0028EFD03CE0204840380068C8
:102730000121090688431D4940390860FFF702F866
:10274000054606E0FEF7FEFF401B022801D90320E4
:1027500015E5164840380068012149060840400E3A
:102760000028EFD11EE0606A012800D107E50F487C
:102770004038C06801900121090401980840A16A0D
:1027800088420DD10F21890401980840E16A8842EE
:1027900006D10321890501980840216B884201D0A8
:1027A0000120ECE40020EAE4007000404010024008
:1027B0008813000070B5044600BF2020005D01288A
:1027C00001D1022070BD01212020015500BF02214E
:1027D0002120015500BFCA2021684862532021688A
:1027E000486200BF2068806801218902884321680F
:1027F0008860206880680121890388432168886097
:10280000FEF7A0FF054615E0FEF79CFF401B7D216B
:10281000C90088420ED900BFFF202168486200BF6E
:1028200003212120015500BF00212020015500BFB8
:102830000320C7E72068C0680421084080080028FA
:10284000E2D000BFFF202168486200BF01212120A3
:10285000015500BF00212020015500BF0020B1E735
:1028600005490968062903D20121044A117002E0D2
:102870000221024A11707047A40000203700002096
:1028800010B504462068C068012189020840800A0A
:1028900000280AD02046FFF7E3FF2068C0688021A7
:1028A0000840064908432168C86001200005044922
:1028B000486101212120015510BD00007FFBFFFF71
:1028C0000004014010B50446002C01D1012010BDC8
:1028D0002120005D002805D100212020015520463F
:1028E00000F06EF802212120015500BFCA202168A6
:1028F000486253202168486200BF204601F0CCFDA9
:10290000002809D000BFFF202168486200BF0421D1
:10291000212001550120DAE7206880682749084016
:1029200021688860216960680843A16908432168BB
:1029300089680843216888602168E0680861206828
:102940000069218909040843216808612068C0687A
:10295000802188432168C8602068C06C800880009E
:102960002168C8646169E06908432168C96C08434B
:102970002168C8642068806820210840002813D19D
:10298000204600F06DF900280ED000BFFF2021681E
:10299000486200BF04212120015500BF00212020F2
:1029A000015500BF012092E700BFFF202168486267
:1029B00000BF012121200155002088E7BFFF8FFFC4
:1029C00010B504460949206888420ED108480069BC
:1029D00001218904084306490861002201210220DF
:1029E000FFF7FAF80220FFF7EBF810BD00280040CF
:1029F00040100240F7B504460D4600BF2020005DA0
:102A0000012801D10220FEBD01212020015500BF77
:102A10000221212001550298002809D1687810214F
:102A20000840102804D16878EF2108400A30687007
:102A30000298002811D1E87801F020FD0704687899
:102A400001F01CFD00020743A87801F017FD0743C1
:102A5000287840033E4606430AE0E8780004697897
:102A600009020843A9780843297849030843064620
:102A700000BFCA202168486253202168486200BF15
:102A8000204601F009FD00280ED000BFFF2021687C
:102A9000486200BF04212120015500BF00212020F1
:102AA000015500BF0120AEE7194830402168486059
:102AB0002068C068802188432168C86020688068D9
:102AC00020210840002813D1204600F0C9F8002832
:102AD0000ED000BFFF202168486200BF04212120E2
:102AE000015500BF00212020015500BF01208AE7C9
:102AF00000BFFF202168486200BF0121212001554D
:102B000000BF00212020015500BF00207BE700000E
:102B10003FFFFF00F7B504460D4600BF2020005DD3
:102B2000012801D10220FEBD01212020015500BF56
:102B3000022121200155029800281BD120688068BD
:102B400040210840002800D002E00020E87000BFCB
:102B5000287801F093FC0704687801F08FFC0002EC
:102B60000743A87801F08AFC0743E87800043E4652
:102B7000064314E02068806840210840002800D007
:102B800002E00020E87000BF28780004697809029C
:102B90000843A9780843E97809040843064600BFBA
:102BA000CA202168486253202168486200BF20463D
:102BB00001F072FC00280ED000BFFF20216848629F
:102BC00000BF04212120015500BF00212020015514
:102BD00000BF0120A7E72148304021680860206835
:102BE0008068012189048843216888602969E86830
:102BF0000843216889680843216888602068C068A4
:102C0000802188432168C8602068806820210840AE
:102C1000002813D1204600F023F800280ED000BF72
:102C2000FF202168486200BF04212120015500BF18
:102C300000212020015500BF012074E700BFFF20C4
:102C40002168486200BF01212120015500BF0021F9
:102C50002020015500BF002065E700007F7F7F0036
:102C600070B504462068C068A02188432168C86008
:102C7000FEF768FD054608E0FEF764FD401B7D2178
:102C8000C900884201D9032070BD2068C068202196
:102C900008400028F0D00020F6E710B50446002CCC
:102CA00001D1012010BD606A002800D100BF0021C1
:102CB000A1625120005D002804D15020015520461A
:102CC00000F034F8022151200155206800684021AD
:102CD000884321680860A16860680843E168084388
:102CE000216908436169084301225202A169114028
:102CF0000843E1690843216A0843A16A084321683F
:102D00000860A069000C04210840616A084321683A
:102D100048602068C069910088432168C86100202C
:102D200060650121512001550020BBE710B586B038
:102D30000446142101A8FDF73CFA2849206888427E
:102D400023D12748406B891408432549486300BFB5
:102D50000846C06A012108432149C8620846C06A82
:102D6000C007C00F009000BF00BFE020019002200C
:102D7000029000200390032004900020059001A9F8
:102D800005200007FEF7CEFB26E0164920688842A2
:102D900022D11348806B091408431149886300BF8E
:102DA0000846C06A022108430D49C8620846C06A45
:102DB00002210840009000BF00BF0720400301909F
:102DC0000220029000200390032004900020059030
:102DD00001A90548FEF7A6FB06B010BD0030014072
:102DE000001002400038004000040050FFB583B0DE
:102DF000044616461D4600200290E068002804D1D3
:102E0000E068002802D1012E00D900BFFF21053162
:102E1000606888420ED1A06800280BD1042151209F
:102E2000015533460095049A1146204600F088F972
:102E300007B0F0BD00BF5020005D012801D1022085
:102E4000F6E701215020015500BFFEF77BFC074645
:102E50005120005D012802D00220029082E00498F7
:102E6000002801D0002E02D1012002907AE0042136
:102E700051200155002060650498A063A687E6876D
:102E800000202063A086E086206460644903A06877
:102E9000884205D12068006849108843216808608D
:102EA0002068006840210840402804D0206800685D
:102EB000084321680860E068002822D11DE02068EE
:102EC0008068C007C00F00280AD02068007BA16B73
:102ED0000870A06B401CA063E08F401EE0870CE0F0
:102EE000FEF730FCC01BA84202D3681C002801D1A9
:102EF000002D02D10320029034E0E08F0028DED1C3
:102F000021E01DE020688068C007C00F00280AD0BB
:102F10002068C068A16B0880A06B801CA063E08F54
:102F2000401EE0870CE0FEF70DFCC01BA84202D358
:102F3000681C002801D1002D02D10320029011E06D
:102F4000E08F0028DED13A462946204601F01CFCDD
:102F5000002801D020206065606D002801D001208C
:102F6000029000BF01215120015500BF00215020D7
:102F7000015500BF02985BE7FFB583B004461646D3
:102F80001D4600200290E068002804D1E068002877
:102F900002D1012E00D900BF00BF5020005D0128E2
:102FA00002D1022007B0F0BD01215020015500BF21
:102FB000FEF7C8FB074601965120005D012802D0AC
:102FC00002200290B2E00498002801D0002E02D125
:102FD00001200290AAE003215120015500206065E4
:102FE00004982063A686E6860020A063A087E08779
:102FF000606420640121C903A068884205D120686B
:103000000068491008432168086020680068402172
:103010000840402804D02068006808432168086000
:103020000121C902E068884232D16068002802D0DC
:103030000198012809D1206B00882168C860206BA5
:10304000801C2063E08E401EE0861DE020688068C2
:103050000221084002280AD1206B00882168C8603C
:10306000206B801C2063E08E401EE0860CE0FEF7A3
:1030700069FBC01BA84202D3681C002801D1002DA7
:1030800002D10320029051E0E08E0028DED131E031
:103090006068002802D00198012809D1206B0078CF
:1030A00021680873206B401C2063E08E401EE08680
:1030B0001DE0206880680221084002280AD1206BA8
:1030C000007821680873206B401C2063E08E401E4E
:1030D000E0860CE0FEF736FBC01BA84202D3681C5A
:1030E000002801D1002D02D1032002901EE0E08EC5
:1030F0000028DED13A462946204601F096FB0028FA
:1031000001D020206065A068002809D100BF009090
:103110002068C068009020688068009000BF00BFF1
:10312000606D002801D00120029000BF01215120D4
:10313000015500BF00215020015500BF029831E722
:10314000FFB587B004461D46109E01200390002065
:103150000290E068002804D1E068002802D1012D27
:1031600000D900BF00BF5020005D012802D102201D
:103170000BB0F0BD01215020015500BFFEF7E2FA6F
:1031800007465120005D04906068059006950498FC
:1031900001280DD0FF2105310598884205D1A0688E
:1031A000002802D10498042802D002200290E9E00D
:1031B0000898002804D00998002801D0002D02D1D9
:1031C00001200290DEE05120005D042802D005219C
:1031D00051200155002060650998A063E587A58707
:1031E00008982063E586A586002020646064206836
:1031F000006840210840402804D020680068084347
:10320000216808600121C902E06888424FD16068E6
:10321000002802D00698012809D1206B0088216877
:10322000C860206B801C2063E08E401EE08637E083
:103230002068806802210840022811D1E08E002811
:103240000ED0039801280BD1206B00882168C8603C
:10325000206B801C2063E08E401EE08600200390DF
:1032600020688068C007C00F00280ED0E08F0028BB
:103270000BD02068C068A16B0880A06B801CA06385
:10328000E08F401EE08701200390FEF75BFAC01B31
:10329000B04205D3701C002802D00320029071E0D8
:1032A000E08E0028C4D1E08F0028C1D150E06068D2
:1032B000002802D00698012809D1206B00782168E7
:1032C0000873206B401C2063E08E401EE08639E0CE
:1032D0002068806802210840022811D1E08E002871
:1032E0000ED0039801280BD1206B00782168087359
:1032F000206B401C2063E08E401EE086002003907F
:1033000020688068C007C00F00280ED0E08F00281A
:103310000BD02068C068A16B0870A06B401CA06334
:10332000E08F401EE08701200390FEF70BFAC01BE0
:10333000B04202D3701C002801D1002E02D103201C
:1033400002901FE0E08E0028C2D1E08F0028BFD19C
:103350003A463146204601F068FA002804D00120A0
:103360000290202060650DE0A068002809D100BF10
:1033700001902068C068019020688068019000BFBB
:1033800000BF00BF01215120015500BF0021502086
:10339000015500BF0298EBE670B504462546681E4D
:1033A0000949884201D901200CE0681E074948619B
:1033B0000321081F01F012F800200449886107204A
:1033C0000861002070BD0000FFFFFF0000E000E08A
:1033D00001460868C068012318430B68D860086874
:1033E00080684207520F062A05D00868006801234A
:1033F00018430B68186000207047000001460868F9
:10340000C068400840000A68D06000BF0868006AD1
:10341000064A1040002805D10868006840084000AE
:103420000A68106000BF0020704700001111000002
:10343000704710B504462068006902210840400822
:1034400000281CD02068C06808404008002816D01A
:10345000481F216808610120207620688069800764
:10346000800F002803D02046FFF7E2FF05E020464A
:1034700000F09DF8204600F09BF8002020762068A0
:10348000006904210840800800281DD02068C06819
:1034900008408008002817D0C8432168086102202E
:1034A000207620688069032109020840002803D0A3
:1034B0002046FFF7BDFF05E0204600F078F82046E3
:1034C00000F076F800202076206800690821084086
:1034D000C00800281CD02068C0680840C008002828
:1034E00016D0C84321680861042020762068C0698E
:1034F0008007800F002803D02046FFF799FF05E0E2
:10350000204600F054F8204600F052F800202076C3
:103510002068006910210840000900281DD020689B
:10352000C06808400009002817D0C8432168086116
:10353000082020762068C06903210902084000287D
:1035400003D02046FFF774FF05E0204600F02FF877
:10355000204600F02DF80020207620680069C00782
:10356000C00F01214840484000280CD02068C068A6
:10357000084048404840002805D0C81E216808611E
:10358000204600F017F820680069402108408009B3
:1035900000280BD02068C06808408009002805D0AA
:1035A000C84321680861204600F028F810BD704724
:1035B0007047000010B504460C492068096888422D
:1035C00005D10A48FFF71AFF0848FFF701FF08492D
:1035D00020680968884208D102F08CFE02F078FD6C
:1035E00015220449044800F051FB10BD38030020A7
:1035F000FC020020740300201C0600207047704766
:1036000070470000FEB504462068C569206806685A
:10361000206887682807000F0190019800280ED1C4
:103620002020284000280AD020203040002806D042
:10363000206E002802D02046216E8847FEBD0198EA
:1036400000287DD0F807C00F002804D1FF202130CA
:1036500030400028F5D0E807C00F00280BD0FF202D
:1036600001303040002806D0012021680862E06F58
:1036700001210843E0670220284000280AD0F8070B
:10368000C00F002806D0022021680862E06F0421E4
:103690000843E0670420284000280AD0F807C00F3C
:1036A000002806D0042021680862E06F0221084348
:1036B000E0670820284000280ED020203040002855
:1036C00003D1F807C00F002806D00820216808623F
:1036D000E06F08210843E067E06F002846D0202013
:1036E0002840002809D020203040002805D0206E36
:1036F000002802D02046216E8847E06F00902068A5
:10370000806840210840402804D0082100980840E3
:10371000002826D0204601F028FE2068806840213D
:103720000840402819D12068806888432168886053
:10373000E06E00280DD02548E16E8863E06E00E061
:1037400015E0FDF73FFD002810D0E06E816B884743
:103750000CE02046FFF754FF08E02046FFF750FF3B
:1037600004E02046FFF74CFF0020E06766E70120F9
:103770000005284000280CD0012080053840002892
:1037800007D001200005216808622046FFF737FFB7
:1037900054E78020284000280AD0802030400028AC
:1037A00006D0606E002802D02046616E884745E74B
:1037B00040202840002807D040203040002803D077
:1037C000204601F0E4FD39E700BF37E7B9520008B1
:1037D00010B50446002C01D1012010BDA0690028BD
:1037E00000D000E000BF606F002805D100217020EC
:1037F0000155204600F02CF82420606720680068FE
:103800004008400021680860204601F063FE01285E
:1038100000D1E2E7606A002802D0204601F09CFC5B
:10382000206840680921C9028843216848602068EF
:1038300080682A2188432168886020680068012107
:10384000084321680860204601F0FEFCC5E700003F
:1038500010B586B00446142101A8FCF7AAFC4F4914
:103860002068884267D100BF4D48C06A01210843E3
:103870004B49C8620846C06AC007C00F009000BF2D
:1038800000BF0846406B012189030843444948634F
:1038900003204002019002200290002003900220A9
:1038A00004900420059001A905200007FDF73AFEC9
:1038B0003C483D4908600320486010213A48816037
:1038C0000021C16080210161002141618161C161EC
:1038D000032109030162FDF727FD002801D0FDF750
:1038E000F9F900BF3048A066846200BF2D4814304B
:1038F0002E4908600320486000212C488160C16087
:1039000080210161002141618161C1610162FDF796
:103910000BFD002801D0FDF7DDF900BF2348E0666C
:10392000846200BF002211461B20FEF755F91B20C0
:10393000FEF746F92FE01E49206888422BD100BFD0
:103940001748C06A012108431549C8620846C06A81
:10395000C007C00F009000BF00BF0846806B012168
:10396000C90408430E498863032001900220029095
:1039700000200390022004900620059001A9052054
:103980000007FDF7CFFD002201210E20FEF724F9EC
:103990000E20FEF715F906B010BD000000380140FA
:1039A000001002401C000240C40400200C0500204E
:1039B000004C004010B50346986F20287DD10029A7
:1039C00001D0002A01D1012010BD012424039868F0
:1039D000A04208D11869002805D1C807C00F0028E7
:1039E00001D00120F0E700BF7020C05C012801D1A8
:1039F0000220E9E701247020C45400BF5965582013
:103A0000C2525A20C2520020186600BF2403986890
:103A1000A0420AD11869002803D1294C5C20C45265
:103A200024E0FF245C20C45220E0986800280AD1DA
:103A30001869002803D1FF245C20C45216E07F24BB
:103A40005C20C45212E0012424079868A0420AD1E5
:103A50001869002803D17F245C20C45206E03F246B
:103A60005C20C45202E000245C20C45200BF00204D
:103A7000D8672220986718688068012420431C6852
:103A8000A060012424039868A04205D11869002889
:103A900002D10C48186601E00B48186600BF0024EC
:103AA0007020C45400BF18680068FF2421342043EC
:103AB0001C682060002087E7FFE7022084E7000001
:103AC000FF010000FD5300086954000810B50446CA
:103AD0002249206888420AD101F042FF2048214A49
:103AE0001278811801222048FFF764FF35E01F4952
:103AF0002068884231D1FDF725FE1D4908601D4828
:103B000000781D491D4A126888540846007800282C
:103B100007D01A480068002803D10120174908601F
:103B200008E016480068002804D014480068401CCB
:103B30001249086011480068114908600F48006880
:103B4000C82805D300200D49086001200D490870E0
:103B5000012208490C48FFF72DFF10BD004C004022
:103B60001C070020590000209C060020003801405E
:103B7000540000204600002054050020480000208A
:103B8000500000204C0000201C060020FFB583B030
:103B900004460D461746606F202875D1002D01D0D0
:103BA000002F02D1012007B0F0BD01210903A06858
:103BB000884208D12069002805D1E807C00F0028F5
:103BC00001D00120EFE700BF7020005D012801D186
:103BD0000220E8E701217020015500BF0020E067C6
:103BE00021206067FDF7AEFD019050200753522061
:103BF000075301210903A068884205D120690028E4
:103C000002D10026029502E02E460020029021E01B
:103C100006980090002280212046019B01F05AFE68
:103C2000002801D00320BEE7002E09D102980088A9
:103C3000C005C00D216888620298801C029003E0D4
:103C4000307821688862761C5220005B401E81B269
:103C5000522001535220005B0028D9D106980090D1
:103C6000002240212046019B01F034FE002801D0B3
:103C7000032098E72020606700BF002170200155D5
:103C800000BF00208FE7FFE702208CE770B50446F5
:103C90000E461546606F20285BD1002E01D0002D06
:103CA00001D1012070BD01210903A068884208D11B
:103CB0002069002805D1F007C00F002801D001209D
:103CC000F0E700BF7020005D012801D10220E9E784
:103CD00001217020015500BFE66450200553522099
:103CE00005530020E06721206067A06E002820D0E7
:103CF0001948A16EC8621948A16E08631848A16EE0
:103D000048630020A16E886323681A4628322B4638
:103D1000E16CA06EFDF75CFB00280AD01020E06784
:103D200000BF00217020015500BF202060670120E6
:103D3000B8E740202168086200BF002170200155CB
:103D400000BF2068806880210843216888600020C7
:103D5000A8E70220A6E70000235300085D530008EF
:103D6000D15200087047704700BFFEE710B500F061
:103D70007FFA10BD016889690222114049080029B3
:103D800002D000210268916201688969C907C90FE0
:103D9000012251405140002904D101688969114331
:103DA000026891617047000070B504460D461646E2
:103DB0002068806910210840000900283FD018E0E1
:103DC000681C002815D0FDF7BDFC801BA84201D857
:103DD000002D0ED1606C2021084360644120015504
:103DE00000214220015500BF4020015500BF0120A5
:103DF00070BD206880692021084040090028DFD07C
:103E000010202168C86120202168C8612046FFF782
:103E1000B1FF206840680B49084021684860606C29
:103E200004210843606420214120015500214220E3
:103E3000015500BF4020015500BF0120D8E70020F8
:103E4000D6E7000000E800FEFFB581B00446154645
:103E50001E460A9F1B48F2B2C302009020460299F8
:103E600000F032F8394620460B9A00F0A2F80028FC
:103E700002D0012005B0F0BD012E03D1E8B22168C7
:103E8000886211E0FF200002284000122168886249
:103E9000394620460B9A00F08CF8002801D001200A
:103EA000E8E7E8B2216888620B983B46002280214F
:103EB0000090204600F024F8002801D00120D9E726
:103EC0000020D7E700200080F0B504686568059CF5
:103ED000640D0126B6023440084E26432C46B443F6
:103EE0008D05AD0D1604FF273F043E4035431D43AD
:103EF000059E35432C4305686C60F0BDFF63FF03EE
:103F0000F8B504460E4617461D4619E0681C002801
:103F100016D0FDF717FC0699401AA84201D8002DCB
:103F20000ED1606C202108436064412001550021BE
:103F30004220015500BF4020015500BF0120F8BDBF
:103F4000206880693040B04201D1012000E00020AB
:103F5000B842DBD00020F2E770B504460D461646A5
:103F60001EE0324629462046FFF71EFF002801D0FA
:103F7000012070BDFDF7E6FB801BA84201D8002D93
:103F80000ED1606C2021084360644120015500215E
:103F90004220015500BF4020015500BF0120E8E745
:103FA000206880692021084040090028D9D00020DD
:103FB000DFE770B504460D46164621E03246294635
:103FC0002046FFF7F1FE002801D0012070BD681CDB
:103FD000002815D0FDF7B6FB801BA84201D8002DA4
:103FE0000ED1606C202108436064412001550021FE
:103FF0004220015500BF4020015500BF0120E5E7E8
:10400000206880690221084040080028D6D000209E
:10401000DCE7000010B51348FEF7CCFB00F0FAFF18
:1040200011484068C007C00F01214840484000289F
:1040300005D00D480068042108430B4908600A4870
:104040004068022108404008002805D00648006862
:104050000821084304490860FF200130FDF7C6FD30
:1040600010BD0000E80900200070004070B5002479
:10407000002500BF09E0002501E0681C85B27D2015
:10408000C0008542F9DB601C84B27D20C000844200
:10409000F1DB00216B2000F021F80721192000F04E
:1040A0001DF806211A2000F019F801211C2000F04B
:1040B00015F818211B2000F011F801211F2000F035
:1040C0000DF80121202000F009F80021372000F030
:1040D00005F85021382000F001F870BD13B584B008
:1040E000044600BF05204003012105AA0B460092AB
:1040F000019102902246D0210348FDF703FC0028DD
:10410000F0D106B010BD0000F803002010B51D4826
:104110001D49086000211C48C163012080071A491D
:1041200048600021184881600721816301210161F5
:104130000021C160001D01774177001F8162FF21CE
:10414000C2314162002124300172042124384161CE
:104150000021016381614163C16100200A49486512
:104160000846FCF7E1FE094809490860C0134860A9
:104170000548FCF755FE0748054908600248FCF76A
:104180004FFE10BD00240140040800200400000878
:10419000600000200000024400B587B0142102A88E
:1041A000FCF707F800BF2F48C06A012108432D49DA
:1041B000C8620846C06AC007C00F019000BF00BFB8
:1041C00000BF0846C06A022108432649C862084663
:1041D000C06A02210840019000BF00BF00BF214813
:1041E000C06A042108431F49C8620846C06A042106
:1041F0000840019000BF00BF0820029001200390FA
:1042000000200490059002A905200007FDF78AF917
:10421000102002900120039000200490059002A934
:104220001148FDF77FF9002210210F48FDF783FAAE
:104230000120C0030290012003900020049005900B
:1042400002A905200007FDF76DF901200003029087
:10425000012003900020049002A90448FDF762F9B0
:1042600007B000BD001002400004005000080050DC
:1042700010B50E480E4908600E4848600A210C48E7
:1042800081600121C160002101610A214161002199
:104290008161C1610162FDF7CBFA00210448FDF79D
:1042A00057FA00210248FDF78AFA10BD0058004075
:1042B000F8030020380F300010B50848084908609E
:1042C000002048607F2106488160FF21C1600021F5
:1042D00001618161C161FEF7F5FA10BD002800405F
:1042E000E809002010B50E480E490860FF2005308F
:1042F000486000210B488160C1600161416101217A
:10430000890481610021C1610162416281620721EA
:10431000C1620021403041744038FEF7BEFC10BD40
:10432000003001406008002010B50F480F490860B8
:10433000E1204002486000210C488160C1600161B9
:104340000C21416100218161C161016200200749A6
:10435000486248670846FFF73BFA002802D004A0ED
:1043600001F0FAFF10BD0000003801401C060020DB
:10437000B4AEBFDA31B3F5CABCBBAFCAA7B0DC007C
:1043800010B50F480F490860E12040024860002145
:104390000C488160C16001610C2141610021816193
:1043A000C161016200200749486248670846FFF77B
:1043B0000FFA002802D004A001F0CEFF10BD0000CB
:1043C000004C00409C060020B4AEBFDA34B3F5CAFE
:1043D000BCBBAFCAA7B0DC007047000010B5002816
:1043E00019DA1A4A03071B0F083B9B089B00D25897
:1043F0008307DC0EFF23A3409A438B071B0E840721
:10440000E40EA3401A43114B0407240F083CA408F0
:10441000A4001A5118E00E4A03231B02D218830885
:104420009B00D2588307DC0EFF23A3409A438B07DF
:104430001B0E8407E40EA3401A43054B03242402F9
:104440001B198408A4001A5110BD00001CED00E0E7
:1044500000E100E07047000070B5054603240A2122
:104460002046FBF75BFE8CB2E42103488173C02138
:10447000C1730021017470BDD403002002460023E3
:10448000114603E05B1C08460A38C1B20A29F9D27A
:104490001807000E0843704770B504462068C068CE
:1044A00040210840002815D1401E2168C860FDF752
:1044B00049F9054608E0FDF745F9401B7D21C90093
:1044C000884201D9032070BD2068C068402108409F
:1044D0000028F0D00020F6E710B50248FEF7D0F92A
:1044E00010BD0000E809002010B5FFF7E5FE002030
:1044F0000D49087048708870C860086100220B4838
:10450000FEF708FB14200A49C870092048700D20E6
:10451000887000220548FEF76DFA0448FEF74AF954
:104520000220FDF74DFB10BD0C0A0020E809002019
:104530009E00002038B537488078C01CC1B235488D
:1045400000F00EFA044633488078C01C3149085CFC
:10455000A04256D10846C0782F4948722D480079AC
:1045600088722C484079694608702A4881796846E3
:1045700041700088284948852648C07988702548B8
:10458000007AC8702348407A08712248807A4871BE
:104590002048C07A88711F48007BC8711D48407B45
:1045A00008721E480078012828D00846407A1C4925
:1045B000C8821948807A88821748408D48851648F5
:1045C000807888801448C1781548C18012480179E4
:1045D0001348018110484179114841810E48817981
:1045E0000F4881810C48C1790D48C1810A48017A80
:1045F0000B48018201200949087002E009A001F07E
:10460000ABFE00200B49087014210248FBF7D1FDD6
:1046100038BD00001C070020B4030020B0000020BB
:104620001C0B0020415432344330325F4255535901
:10463000000000005900002038B527488078C01CD1
:10464000C1B2254800F08CF9044623488078C01C8C
:104650002149085CA04237D10846007969460870B4
:104660001D48C1786846417000881C4948821A4834
:10467000407908741848807948741748017A684668
:1046800001701548C17968464170008813498881D6
:1046900013480078012814D00846418A11488180C7
:1046A0000E48017C0F4801800C48417C0D48418038
:1046B0000A4880890B4940398887012008490870D9
:1046C00002E009A001F048FE00200B490870142107
:1046D0000148FBF76EFD38BD1C070020B403002025
:1046E000B00000205C0B0020415432344330325F74
:1046F00042555359000000005900002010B5FFF743
:10470000F1FD10BDFEB507460C46002002900025C5
:1047100001900026012C04D0022C0BD0032C27D1B1
:1047200014E0012269463846FCF79CF96846007897
:1047300002901EE0022269463846FCF793F968466B
:104740000678457830022843029012E00322694639
:104750003846FCF787F96846067840780190684645
:10476000857830040199090208432843029000E04B
:1047700000BF00BF0298FEBD70B504462046FCF79E
:104780009BF90546284670BDF8B504460E46154609
:10479000FF210531606888420ED10121C903A0685C
:1047A000884203D04911A068884205D1206800687A
:1047B0004021884321680860FF21053160688842F4
:1047C00022D101218902A06888420ED033460022FE
:1047D00080212046009500F06FF8002823D0606DFE
:1047E0002021084360650320F8BD334600220121E3
:1047F0002046009500F060F8002814D0606D20215C
:10480000084360650320EFE733460022012120467C
:10481000009500F051F8002805D0606D2021084374
:1048200060650320E0E70020DEE7F8B504460E46A9
:104830001546FF210531606888420ED133460022BB
:1048400080212046009500F037F8002818D0606DD0
:104850002021084360650320F8BD5120005D052834
:104860000ED13346002201212046009500F024F8A5
:10487000002805D0606D2021084360650320EBE728
:104880000020E9E74007400F09490968094A11403B
:10489000074A116011460968C2001143044A1160B9
:1048A0001146096840221143014A11607047000017
:1048B00000300140C7FF0000F8B504460E46174619
:1048C0001D4641E0681C00283ED0FCF73BFF0699DE
:1048D000401AA84201D2002D36D120684068E0215C
:1048E000884321684860FF210531606888420ED105
:1048F0000121C903A068884203D04911A0688842F9
:1049000005D12068006840218843216808600121A2
:104910004903A06A88420DD100BF2068006888431F
:104920002168086020680068012149030843216864
:10493000086000BF01215120015500BF0021502017
:10494000015500BF0320F8BD206880683040B042A8
:1049500001D1012000E00020B842B3D10020F2E7ED
:1049600030B503460C4600210122002004E09D5C86
:104970006D18A9B2551CEAB2A242F8DBC9B2CD4308
:10498000A9B2C8B230BD704710B58921012000F02E
:104990003FFA1F21112000F03BFA0021402000F0D7
:1049A00037FA0021412000F033FA8D21012000F078
:1049B0002FFA0420FFF766FF10BD10B589210120F2
:1049C00000F026FAF721112000F022FA00210E2033
:1049D00000F01EFA00210D2000F01AFA41214020BB
:1049E00000F016FA4021412000F012FA10BD00003C
:1049F00000B587B000BF2F48C06A012108432D4988
:104A0000C8620846C06AC007C00F019000BF00BF5F
:104A100000BF0846C06A022108432649C86208460A
:104A2000C06A02210840019000BF00BF0022C902F5
:104A30002148FCF780FE0120000302900120039032
:104A400000200490059002A91B48FCF76BFD002292
:104A50000121090305200007FCF76DFE012000037A
:104A600002900120039000200490059002A90520E7
:104A70000007FCF757FD0F208001029000200390F3
:104A80000490059002A90D48FCF74CFD0920000296
:104A90000290002003900490059002A905200007D1
:104AA000FCF740FD0122110305200007FCF743FE3F
:104AB00007B000BD00100240000400500008005084
:104AC00010B5FFF795FF00F029F900BF422000F074
:104AD0002DF81228FAD10348FFF7BEFC00F0EAF8DF
:104AE00010BD0000DE03002037B50C46154600223D
:104AF000012109030B48FCF71EFE0023DB430122C2
:104B000069460948FEF738FA0023DB432A46214666
:104B10000548FEF76BF9012211030248FCF70BFE72
:104B20003EBD0000000400509009002001B582B095
:104B30000022012109030C48FCF7FDFD0023DB43A3
:104B4000012202A90948FEF717FA0023DB430122DC
:104B500001A90648FEF74AF9012211030248FCF7B1
:104B6000EAFD684600790EBD00040050900900205F
:104B7000F7B582B006460F460024002001900420BD
:104B8000FFF780FE80213046FBF713FB4449049871
:104B9000086040214348FCF7C1FD43490880FF21DC
:104BA00001314048FCF7BAFD404908800CE03C4820
:104BB0000068002802D10120019017E000220221A4
:104BC00005200007FCF7B7FD40213648FCF7A6FD9D
:104BD000002808D1FF2101313248FCF79FFD002851
:104BE00001D1012000E000200028E0D100BF012217
:104BF000022105200007FCF79EFD0198012805D140
:104C0000882100F005F9002005B0F0BD1220FFF763
:104C10008DFF04462648047080202040002809D0DB
:104C20008021122000F0F4F88921012000F0F0F832
:104C30000020E9E71220FFF779FF044600BF40217A
:104C40001848FCF76BFD0128F9D11220FFF76EFF21
:104C500004464021122000F0DBF8202020400028EC
:104C600009D02021122000F0D3F88821012000F083
:104C7000CFF80020C8E700210D2000F0C9F813206C
:104C8000FFF754FF05462A4631460020FFF72CFF68
:104C90008821012000F0BCF83D700120B4E700003D
:104CA00094000020000800509A0000209C00002082
:104CB0009800002010B58821012000F0A9F81648BE
:104CC000817B062000F0A4F81348C17B072000F088
:104CD0009FF81148017C082000F09AF8C321312088
:104CE00000F096F894211E2000F092F809211F2070
:104CF00000F08EF878211D2000F08AF8FF210920AD
:104D000000F086F80C21262000F082F8892101208D
:104D100000F07EF810BD0000D403002010B50F484D
:104D20000F490860FF200530486000210C48816071
:104D3000C160016141610121490281613821C16184
:104D400000210162416281620721C162002140307D
:104D500041744038FDF7A1FF10BD0000003800404D
:104D60009009002070B504460D462E460420FFF73A
:104D700089FD3146222000F04BF8324621460020C2
:104D800000F020F88B21012000F042F800BF402104
:104D90000848FCF7C3FC0128F9D11220FFF7C6FE32
:104DA0000821122000F034F88821012000F030F8AA
:104DB00070BD00000008005010B58821012000F0EF
:104DC00027F810BD37B50C4615466946087880218E
:104DD00008430090002249010B48FCF7ACFC00237B
:104DE000DB43012269460948FEF7C6F80023DB438E
:104DF0002A4621460548FEF7BFF801221103024862
:104E0000FCF799FC3EBD0000000400509009002012
:104E100013B50022012109030D48FCF78CFC6946FB
:104E200008788021084300900023DB430122694673
:104E30000848FEF7A1F80023DB43012201A9054839
:104E4000FEF79AF8012211030148FCF774FC1CBD1F
:104E5000000400509009002038B50024AA204A49D7
:104E60000870222048704948407A88704748807A04
:104E7000C8704648807D08714448408D00124871D2
:104E80004248408D8871414880890012C8713F486E
:104E9000007B08723D48408A001248723B48807C83
:104EA00088723A48007CC8723848407C0873384899
:104EB0000068000E4873364800680002000E8873D0
:104EC000334800880004000EC87331480078087425
:104ED0003048806C00906846C07848746846807896
:104EE000887468464078C874684600780875294810
:104EF000C06C00906846C0784875684680788875B0
:104F000068464078C8756846007808762148006D84
:104F100000906846C078487668468078887668460B
:104F20004078C876684600780877184880784877CF
:104F30001648C078887715480079C87713484079B3
:104F4000203108701148807948701048C079887005
:104F50000E48007AC8700C484078401CC1B20A481C
:104F6000FFF7FEFC0446084820300471FF21417120
:104F70002621203801F0A0F80020074908701421EC
:104F80000648FBF716F938BD9E070020B403002041
:104F9000040000206C0A0020590000201C0700209B
:104FA00070B50A25FCF7B8FD00240CE0A0001549F7
:104FB0000858002805D0A0000858401EA100114A3A
:104FC0005050601CC4B2AC42F0DB0F4800680028AF
:104FD00004D00D480068401E0B4908600B4800686B
:104FE000002804D009480068401E084908600848A5
:104FF0000068002804D006480068401E0449086084
:1050000070BD00008C030020840000208C00002074
:105010009400002000B59BB034210EA8FBF7C9F81E
:10502000142109A8FBF7C5F8202101A8FBF7C1F856
:10503000254800680321C90288430121C90240189C
:1050400021490860214800690321C90288431F499A
:1050500008610E200E9088151090012011901020EC
:105060001290012013900220179000211891410402
:10507000199141051A910EA8FDF77CF8002801D07E
:10508000FBF728FE0F20099003200A9080200B9048
:1050900000200C900D90012109A8FCF7D5FE0028F6
:1050A00001D0FBF717FE2920019000200390069005
:1050B00001200004029001A8FCF7A0FD002801D007
:1050C000FBF708FE1BB000BD00700040401002401E
:1050D00015480068FF21013108431349086008465C
:1050E000C068124908401049C86008460068104965
:1050F00008400D4908600846806840084000886004
:105100000846006801218904884307490860084669
:10511000C068FD21090488430349C8600020086174
:10512000C803044988607047001002400C40FF88A3
:10513000F6FFF6FE00ED00E010B50248FEF779F943
:1051400010BD00003803002010B50248FEF771F9C9
:1051500010BD0000FC020020818CC907C90F002986
:1051600008D001684968012252049143826A1143C0
:10517000026851600222416A1140022907D1016888
:105180004968D2039143C26A114302685160042204
:10519000416A1140042907D101684968120491430A
:1051A000026B1143026851600822416A11400829CC
:1051B00007D10168496812039143426B11430268A9
:1051C00051601022416A1140102907D10168896895
:1051D00012029143826B1143026891602022416A5E
:1051E0001140202907D10168896812029143C26BDE
:1051F0001143026891604022416A1140402915D153
:105200000168496892039143026C1143026851603E
:1052100001221205016C914208D1016849680322FC
:1052200052059143426C1143026851608022416AE9
:105230001140802907D10168496812039143826CAB
:10524000114302685160704738B504460020E0679A
:10525000FCF778FA0546206800680821084008280D
:105260000BD114482B46002289040090204600F000
:1052700031FB002801D0032038BD206800680421DC
:10528000084004280BD10B482B460022090500904A
:10529000204600F01FFB002801D00320ECE720206F
:1052A0006067A06700BF00217020015500BF00208B
:1052B000E2E70000FFFFFF0170B50546AC6A002180
:1052C0005A200153522001532046FEF799F970BD30
:1052D000F8B50546AC6A666FA76F206880688021C4
:1052E0000840802807D1212E05D1002152200153EA
:1052F000204600F05CF82068806840210840402883
:1053000007D1222F05D100215A200153204600F059
:105310002CF8E06F10210843E0672046FEF770F993
:10532000F8BD70B50546AC6A2868006820210840C1
:1053300000280FD10021522001532068806880216D
:1053400088432168886020680068402108432168FC
:10535000086002E02046FEF705FD70BD70B504460A
:10536000A56A2846FEF7FFFC70BD01680968FF22A8
:105370002132914302681160016889684908490037
:10538000026891602021816700210166704710B595
:105390000446206800684021884321680860202076
:1053A0006067002060662046FEF7DCFC10BD0168E7
:1053B0000968C0229143026811602021416770474B
:1053C00010B5FEF7B1FF012207490848FEF7F2FACF
:1053D000FEF7D6FF0648074A1278811801220648D0
:1053E000FEF7E8FA10BD0000460000201C06002071
:1053F0001C070020590000209C060020F8B5044638
:105400005C20075BA06F222827D12068406A86B203
:10541000656D304638402880606D801C60655A207C
:10542000005B401E81B25A200153005B00281AD154
:1054300020680068FF2121318843216808602068C6
:10544000806840084000216888602020A067002014
:1054500020662046FEF73AFB05E0206880690821B7
:10546000084321688861F8BD70B504465C20065B7E
:10547000A06F222827D12068406A85B2F0B2284068
:10548000616D0870606D401C60655A20005B401EB5
:1054900081B25A200153005B00281AD120680068AD
:1054A000FF21213188432168086020688068400816
:1054B0004000216888602020A067002020662046E8
:1054C000FEF704FB05E02068806908210843216895
:1054D000886170BDF0B587B00446102004900025A7
:1054E000002003900026EE492068884200D100E0A9
:1054F00000BF2169A068084361690843E169084366
:10550000074620680068E74908403843216808607A
:1055100020684068032109038843E1680843216843
:105520004860A769DE492068884201D0206A0743A5
:10553000206880680B21090288433843216888600D
:1055400000BFD949206888421CD1D848C06880076C
:10555000800F002806D001280AD0022805D0032891
:105560000CD108E0012004900BE00220049008E038
:105570000420049005E00820049002E0102004902C
:1055800000BF54E0CA49206888421CD1C748C0689F
:105590000C210840002806D004280AD0082805D08D
:1055A0000C280CD108E0002004900BE002200490AD
:1055B00008E00420049005E00820049002E0102098
:1055C000049000BF33E0BB492068884202D100202C
:1055D00004902CE0B8492068884202D10020049051
:1055E00025E0AF49206888421FD1B048C068032138
:1055F00089020840002808D001218902401A0AD0F7
:10560000401A05D0401A0CD108E0002004900BE0AD
:105610000220049008E00420049005E00820049093
:1056200002E01020049000BF01E01020049000BFB1
:105630009B492068884256D1049804281AD004DC7B
:10564000002807D002281CD108E0082816D010280E
:1056500017D117E0FCF702FD064616E093484038E4
:105660000068102108400009002801D0934E00E096
:10567000934E0AE0FCF716FD064606E00126F60307
:1056800003E000BF0120039000BF00BF002E0AD03E
:10569000606841004018B04203D860680003B0421F
:1056A00002D201200390F4E0606802903046FF21AE
:1056B000013100F078FE62685208002380185941D9
:1056C00001910090029AFAF73DFD05460320000281
:1056D000854205D37B48854202D82068C560D8E062
:1056E00001200390D5E00121C903E06988426FD110
:1056F000049804283CD006DC002809D0012813D0E7
:1057000002284AD11CE008283ED0102845D145E0A7
:10571000FCF7A4FC400061684908401802906168E9
:10572000FAF7E6FC85B23CE0FCF7AAFC40006168B1
:105730004908401802906168FAF7DAFC85B230E057
:105740005A4840380068102108400009002807D056
:1057500061684A085C4BD018FAF7CAFC85B206E0CB
:1057600061684A08594BD018FAF7C2FC85B218E0B4
:10577000FCF798FC40006168490840180290616895
:10578000FAF7B6FC85B20CE061684A0801231B04F5
:10579000D018FAF7ADFC85B203E000BF01200390FA
:1057A00000BF00BF102D0FD3494885420CD8484890
:1057B0000F38284005902807400F059908430590A9
:1057C00005982168C86064E00120039061E0FFE76C
:1057D000049804283AD006DC002809D0012812D009
:1057E000022847D11AE008283BD0102842D142E0D5
:1057F000FCF734FC61684908401802906168FAF7C8
:1058000077FC85B23AE0FCF73BFC61684908401838
:1058100002906168FAF76CFC85B22FE023484038AB
:105820000068102108400009002807D061684A0874
:10583000224BD018FAF75CFC85B206E061684A0892
:105840001F4BD018FAF754FC85B217E0FCF72AFC7E
:1058500061684908401802906168FAF749FC85B20E
:105860000CE061684A080123DB03D018FAF740FC1A
:1058700085B203E000BF0120039000BF00BF102DE0
:1058800005D31348854202D82068C56001E0012095
:105890000390002020666066039807B0F0BD00000A
:1058A00000480040F369FFEF00380140401002401B
:1058B00000440040004C00400050004000093D0002
:1058C0000024F400FFFF0F0000127A000048E801F6
:1058D000FFFF0000FFB581B004460D4617460A9E43
:1058E00022E0701C00281FD0FBF72CFF0499401AFF
:1058F000B04201D8002E17D120680068FF21A131E5
:10590000884321680860206880684008400021685A
:10591000886020206067A06700BF002170200155CB
:1059200000BF032005B0F0BD2068C0692840A84230
:1059300001D1012000E00020B842D2D00020F1E7E0
:1059400010B50248FDF75EFE10BD00001C060020E9
:1059500010B50248FDF756FE10BD00009C06002061
:1059600038B5E9480078002807D1E8480078AA2827
:1059700003D10120E449087016E0E4480078AA2821
:105980000FD1E1480078401CDF49087008460078D4
:10599000282809DB002008701421DC48FAF709FCEC
:1059A00002E00020D8490870D748007806287DDB3F
:1059B000D6484078FF2879D1D4484079552876D107
:1059C000D2488078052873D006DC030000F003FD80
:1059D000050D7EA1BBE0740006286AD0072869D0B7
:1059E000082868D0FF2867D10CE0FFF735FA0020BF
:1059F000C5490870C549087048708870C87008713A
:105A0000487180E1C2A000F0A7FCC548417AC5A05A
:105A100000F0A2FCC248817AC9A000F09DFCC048F9
:105A2000817DCEA000F098FCBD48418DD2A000F051
:105A300093FCBB488189D7A000F08EFCB848418A0E
:105A4000DCA000F089FCB648017CE2A000F084FCF8
:105A5000B348417CE6A000F07FFCEC480168ECA074
:105A600000F07AFCF149886CFAF73AFE04462246C7
:105A70000B46EFA000F070FCEC49C86CFAF730FE62
:105A8000044622460B46F1A000F066FCE749086D8B
:105A9000FAF726FE044622460B46F3A000F05CFC13
:105AA000F8A000F059FC0020974906E05DE249E2C9
:105AB0008CE0A9E0CCE0F7E01AE1087093490870A7
:105AC00048708870C870087148711CE1F3A000F03C
:105AD00043FC8E48C078924948728C48007988729D
